{
  "_format": "hh-sol-artifact-1",
  "contractName": "UnstructuredProxy",
  "sourceName": "contracts/Proxy.sol",
  "abi": [
    {
      "stateMutability": "payable",
      "type": "fallback"
    },
    {
      "inputs": [],
      "name": "getImplementationAddress",
      "outputs": [
        {
          "internalType": "address",
          "name": "impl",
          "type": "address"
        }
      ],
      "stateMutability": "view",
      "type": "function"
    },
    {
      "inputs": [],
      "name": "getOwnerAddress",
      "outputs": [
        {
          "internalType": "address",
          "name": "ownr",
          "type": "address"
        }
      ],
      "stateMutability": "view",
      "type": "function"
    },
    {
      "inputs": [
        {
          "internalType": "address",
          "name": "_implementationAddress",
          "type": "address"
        }
      ],
      "name": "setImplementationAddress",
      "outputs": [],
      "stateMutability": "nonpayable",
      "type": "function"
    },
    {
      "inputs": [
        {
          "internalType": "address",
          "name": "_ownerAddress",
          "type": "address"
        }
      ],
      "name": "setOwnerAddress",
      "outputs": [],
      "stateMutability": "nonpayable",
      "type": "function"
    },
    {
      "stateMutability": "payable",
      "type": "receive"
    }
  ],
  "bytecode": "0x608060405234801561001057600080fd5b5061037d806100206000396000f3fe6080604052600436106100435760003560e01c80630c4f65bd1461007c5780630cbcae70146100a7578063331a6bf5146100d2578063ecade2f0146100fb5761004a565b3661004a57005b6000610054610124565b905060405136600082376000803683855af43d6000833e8060008114610078573d83f35b3d83fd5b34801561008857600080fd5b50610091610164565b60405161009e9190610261565b60405180910390f35b3480156100b357600080fd5b506100bc610124565b6040516100c99190610261565b60405180910390f35b3480156100de57600080fd5b506100f960048036038101906100f491906102ad565b6101a4565b005b34801561010757600080fd5b50610122600480360381019061011d91906102ad565b6101e2565b005b60008060017f360894a13ba1a3210667c828492db98dca3e2076cc3735a920a3ca505d382bbd60001c6101579190610313565b60001b9050805491505090565b60008060017fa7b53796fd2d99cb1f5ae019b54f9e024446c3d12b483f733ccc62ed04eb126b60001c6101979190610313565b60001b9050805491505090565b600060017fa7b53796fd2d99cb1f5ae019b54f9e024446c3d12b483f733ccc62ed04eb126b60001c6101d69190610313565b60001b90508181555050565b600060017f360894a13ba1a3210667c828492db98dca3e2076cc3735a920a3ca505d382bbd60001c6102149190610313565b60001b90508181555050565b600073ffffffffffffffffffffffffffffffffffffffff82169050919050565b600061024b82610220565b9050919050565b61025b81610240565b82525050565b60006020820190506102766000830184610252565b92915050565b600080fd5b61028a81610240565b811461029557600080fd5b50565b6000813590506102a781610281565b92915050565b6000602082840312156102c3576102c261027c565b5b60006102d184828501610298565b91505092915050565b6000819050919050565b7f4e487b7100000000000000000000000000000000000000000000000000000000600052601160045260246000fd5b600061031e826102da565b9150610329836102da565b92508282101561033c5761033b6102e4565b5b82820390509291505056fea2646970667358221220c40cfbd8335c12f2f8f87ec9ff375ae4a1a0ae9de2be32f6a325fb1d6bf2dbf364736f6c634300080b0033",
  "linkReferences": {},
  "deployedLinkReferences": {}
}