{
  "_format": "hh-sol-artifact-1",
  "contractName": "MetamorphicFactory",
  "sourceName": "contracts/MetamorphicFactory.sol",
  "abi": [
    {
      "anonymous": false,
      "inputs": [
        {
          "indexed": false,
          "internalType": "address",
          "name": "_addr",
          "type": "address"
        }
      ],
      "name": "Deployed",
      "type": "event"
    },
    {
      "inputs": [
        {
          "internalType": "bytes32",
          "name": "salt",
          "type": "bytes32"
        },
        {
          "internalType": "bytes",
          "name": "metamorphicCode",
          "type": "bytes"
        }
      ],
      "name": "_getMetamorphicContractAddress",
      "outputs": [
        {
          "internalType": "address",
          "name": "",
          "type": "address"
        }
      ],
      "stateMutability": "view",
      "type": "function"
    },
    {
      "inputs": [
        {
          "internalType": "bytes32",
          "name": "salt",
          "type": "bytes32"
        },
        {
          "internalType": "bytes",
          "name": "bytecode",
          "type": "bytes"
        }
      ],
      "name": "deploy",
      "outputs": [],
      "stateMutability": "nonpayable",
      "type": "function"
    },
    {
      "inputs": [],
      "name": "getImplementation",
      "outputs": [
        {
          "internalType": "address",
          "name": "",
          "type": "address"
        }
      ],
      "stateMutability": "view",
      "type": "function"
    }
  ],
  "bytecode": "0x608060405234801561001057600080fd5b5061084b806100206000396000f3fe608060405234801561001057600080fd5b50600436106100415760003560e01c8063aaf10f4214610046578063cdcb760a14610064578063f894d62c14610080575b600080fd5b61004e6100b0565b60405161005b9190610340565b60405180910390f35b61007e600480360381019061007991906104eb565b6100d9565b005b61009a600480360381019061009591906104eb565b6102a1565b6040516100a79190610340565b60405180910390f35b60008060009054906101000a900473ffffffffffffffffffffffffffffffffffffffff16905090565b60006040518060400160405280601d81526020017f5860208158601c335a63aaf10f428752fa158151803b80938091923cf30000008152509050600061011f84836102a1565b9050600083602001845180826000f092505050600073ffffffffffffffffffffffffffffffffffffffff168173ffffffffffffffffffffffffffffffffffffffff1614156101a2576040517f08c379a0000000000000000000000000000000000000000000000000000000008152600401610199906105ca565b60405180910390fd5b806000806101000a81548173ffffffffffffffffffffffffffffffffffffffff021916908373ffffffffffffffffffffffffffffffffffffffff16021790555060008360200184518781836000f5925050508273ffffffffffffffffffffffffffffffffffffffff168173ffffffffffffffffffffffffffffffffffffffff1614610262576040517f08c379a00000000000000000000000000000000000000000000000000000000081526004016102599061065c565b60405180910390fd5b7ff40fcec21964ffb566044d083b4073f29f7f7929110ea19e1b3ebe375d89055e816040516102919190610340565b60405180910390a1505050505050565b60003083836040516020016102b691906106f6565b604051602081830303815290604052805190602001206040516020016102de939291906107cd565b6040516020818303038152906040528051906020012060001c905092915050565b600073ffffffffffffffffffffffffffffffffffffffff82169050919050565b600061032a826102ff565b9050919050565b61033a8161031f565b82525050565b60006020820190506103556000830184610331565b92915050565b6000604051905090565b600080fd5b600080fd5b6000819050919050565b6103828161036f565b811461038d57600080fd5b50565b60008135905061039f81610379565b92915050565b600080fd5b600080fd5b6000601f19601f8301169050919050565b7f4e487b7100000000000000000000000000000000000000000000000000000000600052604160045260246000fd5b6103f8826103af565b810181811067ffffffffffffffff82111715610417576104166103c0565b5b80604052505050565b600061042a61035b565b905061043682826103ef565b919050565b600067ffffffffffffffff821115610456576104556103c0565b5b61045f826103af565b9050602081019050919050565b82818337600083830152505050565b600061048e6104898461043b565b610420565b9050828152602081018484840111156104aa576104a96103aa565b5b6104b584828561046c565b509392505050565b600082601f8301126104d2576104d16103a5565b5b81356104e284826020860161047b565b91505092915050565b6000806040838503121561050257610501610365565b5b600061051085828601610390565b925050602083013567ffffffffffffffff8111156105315761053061036a565b5b61053d858286016104bd565b9150509250929050565b600082825260208201905092915050565b7f4661696c656420746f206465706c6f7920746865206e657720696d706c656d6560008201527f6e746174696f6e20636f6e74726163742e000000000000000000000000000000602082015250565b60006105b4603183610547565b91506105bf82610558565b604082019050919050565b600060208201905081810360008301526105e3816105a7565b9050919050565b7f4661696c656420746f206465706c6f7920746865206e6577206d6574616d6f7260008201527f7068696320636f6e74726163742e000000000000000000000000000000000000602082015250565b6000610646602e83610547565b9150610651826105ea565b604082019050919050565b6000602082019050818103600083015261067581610639565b9050919050565b600081519050919050565b600081905092915050565b60005b838110156106b0578082015181840152602081019050610695565b838111156106bf576000848401525b50505050565b60006106d08261067c565b6106da8185610687565b93506106ea818560208601610692565b80840191505092915050565b600061070282846106c5565b915081905092915050565b600081905092915050565b7fff00000000000000000000000000000000000000000000000000000000000000600082015250565b600061074e60018361070d565b915061075982610718565b600182019050919050565b60008160601b9050919050565b600061077c82610764565b9050919050565b600061078e82610771565b9050919050565b6107a66107a18261031f565b610783565b82525050565b6000819050919050565b6107c76107c28261036f565b6107ac565b82525050565b60006107d882610741565b91506107e48286610795565b6014820191506107f482856107b6565b60208201915061080482846107b6565b60208201915081905094935050505056fea264697066735822122062dcd5a071103db99e1d6bc5acc3db5fd17bc2999b21a9a92447e790e947d21c64736f6c634300080b0033",
  "linkReferences": {},
  "deployedLinkReferences": {}
}