{
  "_format": "hh-sol-artifact-1",
  "contractName": "LotteryNft",
  "sourceName": "contracts/LotteryNft.sol",
  "abi": [
    {
      "anonymous": false,
      "inputs": [
        {
          "indexed": true,
          "internalType": "address",
          "name": "owner",
          "type": "address"
        },
        {
          "indexed": true,
          "internalType": "address",
          "name": "approved",
          "type": "address"
        },
        {
          "indexed": true,
          "internalType": "uint256",
          "name": "tokenId",
          "type": "uint256"
        }
      ],
      "name": "Approval",
      "type": "event"
    },
    {
      "anonymous": false,
      "inputs": [
        {
          "indexed": true,
          "internalType": "address",
          "name": "owner",
          "type": "address"
        },
        {
          "indexed": true,
          "internalType": "address",
          "name": "operator",
          "type": "address"
        },
        {
          "indexed": false,
          "internalType": "bool",
          "name": "approved",
          "type": "bool"
        }
      ],
      "name": "ApprovalForAll",
      "type": "event"
    },
    {
      "anonymous": false,
      "inputs": [
        {
          "indexed": false,
          "internalType": "uint8",
          "name": "version",
          "type": "uint8"
        }
      ],
      "name": "Initialized",
      "type": "event"
    },
    {
      "anonymous": false,
      "inputs": [
        {
          "indexed": true,
          "internalType": "address",
          "name": "previousOwner",
          "type": "address"
        },
        {
          "indexed": true,
          "internalType": "address",
          "name": "newOwner",
          "type": "address"
        }
      ],
      "name": "OwnershipTransferred",
      "type": "event"
    },
    {
      "anonymous": false,
      "inputs": [
        {
          "indexed": true,
          "internalType": "address",
          "name": "from",
          "type": "address"
        },
        {
          "indexed": true,
          "internalType": "address",
          "name": "to",
          "type": "address"
        },
        {
          "indexed": true,
          "internalType": "uint256",
          "name": "tokenId",
          "type": "uint256"
        }
      ],
      "name": "Transfer",
      "type": "event"
    },
    {
      "inputs": [
        {
          "internalType": "address",
          "name": "to",
          "type": "address"
        },
        {
          "internalType": "uint256",
          "name": "tokenId",
          "type": "uint256"
        }
      ],
      "name": "approve",
      "outputs": [],
      "stateMutability": "nonpayable",
      "type": "function"
    },
    {
      "inputs": [
        {
          "internalType": "address",
          "name": "owner",
          "type": "address"
        }
      ],
      "name": "balanceOf",
      "outputs": [
        {
          "internalType": "uint256",
          "name": "",
          "type": "uint256"
        }
      ],
      "stateMutability": "view",
      "type": "function"
    },
    {
      "inputs": [
        {
          "internalType": "string",
          "name": "tokenURI",
          "type": "string"
        }
      ],
      "name": "buyTicket",
      "outputs": [
        {
          "internalType": "uint256",
          "name": "",
          "type": "uint256"
        }
      ],
      "stateMutability": "payable",
      "type": "function"
    },
    {
      "inputs": [
        {
          "internalType": "uint256",
          "name": "tokenId",
          "type": "uint256"
        }
      ],
      "name": "getApproved",
      "outputs": [
        {
          "internalType": "address",
          "name": "",
          "type": "address"
        }
      ],
      "stateMutability": "view",
      "type": "function"
    },
    {
      "inputs": [],
      "name": "getBalance",
      "outputs": [
        {
          "internalType": "uint256",
          "name": "",
          "type": "uint256"
        }
      ],
      "stateMutability": "view",
      "type": "function"
    },
    {
      "inputs": [],
      "name": "getPlayers",
      "outputs": [
        {
          "internalType": "address payable[]",
          "name": "",
          "type": "address[]"
        }
      ],
      "stateMutability": "view",
      "type": "function"
    },
    {
      "inputs": [],
      "name": "getRandomNumber",
      "outputs": [
        {
          "internalType": "uint256",
          "name": "",
          "type": "uint256"
        }
      ],
      "stateMutability": "view",
      "type": "function"
    },
    {
      "inputs": [],
      "name": "getTokensCounter",
      "outputs": [
        {
          "internalType": "uint256",
          "name": "",
          "type": "uint256"
        }
      ],
      "stateMutability": "view",
      "type": "function"
    },
    {
      "inputs": [
        {
          "internalType": "uint256",
          "name": "startingBlock",
          "type": "uint256"
        },
        {
          "internalType": "uint256",
          "name": "endingBlock",
          "type": "uint256"
        }
      ],
      "name": "initialize",
      "outputs": [],
      "stateMutability": "nonpayable",
      "type": "function"
    },
    {
      "inputs": [
        {
          "internalType": "address",
          "name": "owner",
          "type": "address"
        },
        {
          "internalType": "address",
          "name": "operator",
          "type": "address"
        }
      ],
      "name": "isApprovedForAll",
      "outputs": [
        {
          "internalType": "bool",
          "name": "",
          "type": "bool"
        }
      ],
      "stateMutability": "view",
      "type": "function"
    },
    {
      "inputs": [],
      "name": "name",
      "outputs": [
        {
          "internalType": "string",
          "name": "",
          "type": "string"
        }
      ],
      "stateMutability": "view",
      "type": "function"
    },
    {
      "inputs": [],
      "name": "owner",
      "outputs": [
        {
          "internalType": "address",
          "name": "",
          "type": "address"
        }
      ],
      "stateMutability": "view",
      "type": "function"
    },
    {
      "inputs": [
        {
          "internalType": "uint256",
          "name": "tokenId",
          "type": "uint256"
        }
      ],
      "name": "ownerOf",
      "outputs": [
        {
          "internalType": "address",
          "name": "",
          "type": "address"
        }
      ],
      "stateMutability": "view",
      "type": "function"
    },
    {
      "inputs": [],
      "name": "pickWinner",
      "outputs": [],
      "stateMutability": "nonpayable",
      "type": "function"
    },
    {
      "inputs": [
        {
          "internalType": "uint256",
          "name": "",
          "type": "uint256"
        }
      ],
      "name": "players",
      "outputs": [
        {
          "internalType": "address payable",
          "name": "",
          "type": "address"
        }
      ],
      "stateMutability": "view",
      "type": "function"
    },
    {
      "inputs": [],
      "name": "renounceOwnership",
      "outputs": [],
      "stateMutability": "nonpayable",
      "type": "function"
    },
    {
      "inputs": [
        {
          "internalType": "address",
          "name": "from",
          "type": "address"
        },
        {
          "internalType": "address",
          "name": "to",
          "type": "address"
        },
        {
          "internalType": "uint256",
          "name": "tokenId",
          "type": "uint256"
        }
      ],
      "name": "safeTransferFrom",
      "outputs": [],
      "stateMutability": "nonpayable",
      "type": "function"
    },
    {
      "inputs": [
        {
          "internalType": "address",
          "name": "from",
          "type": "address"
        },
        {
          "internalType": "address",
          "name": "to",
          "type": "address"
        },
        {
          "internalType": "uint256",
          "name": "tokenId",
          "type": "uint256"
        },
        {
          "internalType": "bytes",
          "name": "data",
          "type": "bytes"
        }
      ],
      "name": "safeTransferFrom",
      "outputs": [],
      "stateMutability": "nonpayable",
      "type": "function"
    },
    {
      "inputs": [
        {
          "internalType": "address",
          "name": "operator",
          "type": "address"
        },
        {
          "internalType": "bool",
          "name": "approved",
          "type": "bool"
        }
      ],
      "name": "setApprovalForAll",
      "outputs": [],
      "stateMutability": "nonpayable",
      "type": "function"
    },
    {
      "inputs": [
        {
          "internalType": "bytes4",
          "name": "interfaceId",
          "type": "bytes4"
        }
      ],
      "name": "supportsInterface",
      "outputs": [
        {
          "internalType": "bool",
          "name": "",
          "type": "bool"
        }
      ],
      "stateMutability": "view",
      "type": "function"
    },
    {
      "inputs": [],
      "name": "symbol",
      "outputs": [
        {
          "internalType": "string",
          "name": "",
          "type": "string"
        }
      ],
      "stateMutability": "view",
      "type": "function"
    },
    {
      "inputs": [
        {
          "internalType": "uint256",
          "name": "tokenId",
          "type": "uint256"
        }
      ],
      "name": "tokenURI",
      "outputs": [
        {
          "internalType": "string",
          "name": "",
          "type": "string"
        }
      ],
      "stateMutability": "view",
      "type": "function"
    },
    {
      "inputs": [
        {
          "internalType": "address",
          "name": "from",
          "type": "address"
        },
        {
          "internalType": "address",
          "name": "to",
          "type": "address"
        },
        {
          "internalType": "uint256",
          "name": "tokenId",
          "type": "uint256"
        }
      ],
      "name": "transferFrom",
      "outputs": [],
      "stateMutability": "nonpayable",
      "type": "function"
    },
    {
      "inputs": [
        {
          "internalType": "address",
          "name": "newOwner",
          "type": "address"
        }
      ],
      "name": "transferOwnership",
      "outputs": [],
      "stateMutability": "nonpayable",
      "type": "function"
    }
  ],
  "bytecode": "0x608060405234801561001057600080fd5b50613bc0806100206000396000f3fe60806040526004361061014b5760003560e01c80638da5cb5b116100b6578063dbdff2c11161006f578063dbdff2c11461047e578063e4a30116146104a9578063e985e9c5146104d2578063f2fde38b1461050f578063f71d96cb14610538578063fa30b251146105755761014b565b80638da5cb5b1461036e578063955eff3b1461039957806395d89b41146103c4578063a22cb465146103ef578063b88d4fde14610418578063c87b56dd146104415761014b565b806342842e0e1161010857806342842e0e146102725780635d495aea1461029b5780636352211e146102b257806370a08231146102ef578063715018a61461032c5780638b5b9ccc146103435761014b565b806301ffc9a71461015057806306fdde031461018d578063081812fc146101b8578063095ea7b3146101f557806312065fe01461021e57806323b872dd14610249575b600080fd5b34801561015c57600080fd5b50610177600480360381019061017291906124e1565b6105a5565b6040516101849190612529565b60405180910390f35b34801561019957600080fd5b506101a2610687565b6040516101af91906125dd565b60405180910390f35b3480156101c457600080fd5b506101df60048036038101906101da9190612635565b610719565b6040516101ec91906126a3565b60405180910390f35b34801561020157600080fd5b5061021c600480360381019061021791906126ea565b61075f565b005b34801561022a57600080fd5b50610233610877565b6040516102409190612739565b60405180910390f35b34801561025557600080fd5b50610270600480360381019061026b9190612754565b61087f565b005b34801561027e57600080fd5b5061029960048036038101906102949190612754565b6108df565b005b3480156102a757600080fd5b506102b06108ff565b005b3480156102be57600080fd5b506102d960048036038101906102d49190612635565b610a5a565b6040516102e691906126a3565b60405180910390f35b3480156102fb57600080fd5b50610316600480360381019061031191906127a7565b610b0c565b6040516103239190612739565b60405180910390f35b34801561033857600080fd5b50610341610bc4565b005b34801561034f57600080fd5b50610358610bd8565b60405161036591906128a4565b60405180910390f35b34801561037a57600080fd5b50610383610c66565b60405161039091906126a3565b60405180910390f35b3480156103a557600080fd5b506103ae610c90565b6040516103bb9190612739565b60405180910390f35b3480156103d057600080fd5b506103d9610ca1565b6040516103e691906125dd565b60405180910390f35b3480156103fb57600080fd5b50610416600480360381019061041191906128f2565b610d33565b005b34801561042457600080fd5b5061043f600480360381019061043a9190612a67565b610d49565b005b34801561044d57600080fd5b5061046860048036038101906104639190612635565b610dab565b60405161047591906125dd565b60405180910390f35b34801561048a57600080fd5b50610493610ebe565b6040516104a09190612739565b60405180910390f35b3480156104b557600080fd5b506104d060048036038101906104cb9190612aea565b610ef8565b005b3480156104de57600080fd5b506104f960048036038101906104f49190612b2a565b6110ba565b6040516105069190612529565b60405180910390f35b34801561051b57600080fd5b50610536600480360381019061053191906127a7565b61114e565b005b34801561054457600080fd5b5061055f600480360381019061055a9190612635565b6111d2565b60405161056c9190612b79565b60405180910390f35b61058f600480360381019061058a9190612c35565b611211565b60405161059c9190612739565b60405180910390f35b60007f80ac58cd000000000000000000000000000000000000000000000000000000007bffffffffffffffffffffffffffffffffffffffffffffffffffffffff1916827bffffffffffffffffffffffffffffffffffffffffffffffffffffffff1916148061067057507f5b5e139f000000000000000000000000000000000000000000000000000000007bffffffffffffffffffffffffffffffffffffffffffffffffffffffff1916827bffffffffffffffffffffffffffffffffffffffffffffffffffffffff1916145b80610680575061067f826113cf565b5b9050919050565b60606065805461069690612cad565b80601f01602080910402602001604051908101604052809291908181526020018280546106c290612cad565b801561070f5780601f106106e45761010080835404028352916020019161070f565b820191906000526020600020905b8154815290600101906020018083116106f257829003601f168201915b5050505050905090565b600061072482611439565b6069600083815260200190815260200160002060009054906101000a900473ffffffffffffffffffffffffffffffffffffffff169050919050565b600061076a82610a5a565b90508073ffffffffffffffffffffffffffffffffffffffff168373ffffffffffffffffffffffffffffffffffffffff1614156107db576040517f08c379a00000000000000000000000000000000000000000000000000000000081526004016107d290612d51565b60405180910390fd5b8073ffffffffffffffffffffffffffffffffffffffff166107fa611484565b73ffffffffffffffffffffffffffffffffffffffff161480610829575061082881610823611484565b6110ba565b5b610868576040517f08c379a000000000000000000000000000000000000000000000000000000000815260040161085f90612de3565b60405180910390fd5b610872838361148c565b505050565b600047905090565b61089061088a611484565b82611545565b6108cf576040517f08c379a00000000000000000000000000000000000000000000000000000000081526004016108c690612e75565b60405180910390fd5b6108da8383836115da565b505050565b6108fa83838360405180602001604052806000815250610d49565b505050565b610907611841565b4360fe541061094b576040517f08c379a000000000000000000000000000000000000000000000000000000000815260040161094290612f07565b60405180910390fd5b60ff60009054906101000a900460ff161561099b576040517f08c379a000000000000000000000000000000000000000000000000000000000815260040161099290612f73565b60405180910390fd5b600060fc805490506109ab610ebe565b6109b59190612fc2565b905060fc81815481106109cb576109ca612ff3565b5b9060005260206000200160009054906101000a900473ffffffffffffffffffffffffffffffffffffffff1673ffffffffffffffffffffffffffffffffffffffff166108fc479081150290604051600060405180830381858888f19350505050158015610a3b573d6000803e3d6000fd5b50600160ff60006101000a81548160ff02191690831515021790555050565b6000806067600084815260200190815260200160002060009054906101000a900473ffffffffffffffffffffffffffffffffffffffff169050600073ffffffffffffffffffffffffffffffffffffffff168173ffffffffffffffffffffffffffffffffffffffff161415610b03576040517f08c379a0000000000000000000000000000000000000000000000000000000008152600401610afa9061306e565b60405180910390fd5b80915050919050565b60008073ffffffffffffffffffffffffffffffffffffffff168273ffffffffffffffffffffffffffffffffffffffff161415610b7d576040517f08c379a0000000000000000000000000000000000000000000000000000000008152600401610b7490613100565b60405180910390fd5b606860008373ffffffffffffffffffffffffffffffffffffffff1673ffffffffffffffffffffffffffffffffffffffff168152602001908152602001600020549050919050565b610bcc611841565b610bd660006118bf565b565b606060fc805480602002602001604051908101604052809291908181526020018280548015610c5c57602002820191906000526020600020905b8160009054906101000a900473ffffffffffffffffffffffffffffffffffffffff1673ffffffffffffffffffffffffffffffffffffffff1681526020019060010190808311610c12575b5050505050905090565b600060c960009054906101000a900473ffffffffffffffffffffffffffffffffffffffff16905090565b6000610c9c60fb611985565b905090565b606060668054610cb090612cad565b80601f0160208091040260200160405190810160405280929190818152602001828054610cdc90612cad565b8015610d295780601f10610cfe57610100808354040283529160200191610d29565b820191906000526020600020905b815481529060010190602001808311610d0c57829003601f168201915b5050505050905090565b610d45610d3e611484565b8383611993565b5050565b610d5a610d54611484565b83611545565b610d99576040517f08c379a0000000000000000000000000000000000000000000000000000000008152600401610d9090612e75565b60405180910390fd5b610da584848484611b00565b50505050565b6060610db682611439565b6000609760008481526020019081526020016000208054610dd690612cad565b80601f0160208091040260200160405190810160405280929190818152602001828054610e0290612cad565b8015610e4f5780601f10610e2457610100808354040283529160200191610e4f565b820191906000526020600020905b815481529060010190602001808311610e3257829003601f168201915b505050505090506000610e60611b5c565b9050600081511415610e76578192505050610eb9565b600082511115610eab578082604051602001610e9392919061315c565b60405160208183030381529060405292505050610eb9565b610eb484611b73565b925050505b919050565b6000610ec8610c66565b42604051602001610eda9291906131e9565b6040516020818303038152906040528051906020012060001c905090565b60008060019054906101000a900460ff16159050808015610f295750600160008054906101000a900460ff1660ff16105b80610f565750610f3830611bdb565b158015610f555750600160008054906101000a900460ff1660ff16145b5b610f95576040517f08c379a0000000000000000000000000000000000000000000000000000000008152600401610f8c90613287565b60405180910390fd5b60016000806101000a81548160ff021916908360ff1602179055508015610fd2576001600060016101000a81548160ff0219169083151502179055505b6110466040518060400160405280600781526020017f4c6f7474657279000000000000000000000000000000000000000000000000008152506040518060400160405280600781526020017f4c4f545445525900000000000000000000000000000000000000000000000000815250611bfe565b61104e611c5b565b8260fd819055508160fe8190555080156110b55760008060016101000a81548160ff0219169083151502179055507f7f26b83ff96e1f2b6a682f133852f6798a09c465da95921460cefb384740249860016040516110ac91906132f9565b60405180910390a15b505050565b6000606a60008473ffffffffffffffffffffffffffffffffffffffff1673ffffffffffffffffffffffffffffffffffffffff16815260200190815260200160002060008373ffffffffffffffffffffffffffffffffffffffff1673ffffffffffffffffffffffffffffffffffffffff16815260200190815260200160002060009054906101000a900460ff16905092915050565b611156611841565b600073ffffffffffffffffffffffffffffffffffffffff168173ffffffffffffffffffffffffffffffffffffffff1614156111c6576040517f08c379a00000000000000000000000000000000000000000000000000000000081526004016111bd90613386565b60405180910390fd5b6111cf816118bf565b50565b60fc81815481106111e257600080fd5b906000526020600020016000915054906101000a900473ffffffffffffffffffffffffffffffffffffffff1681565b60004360fd541115611258576040517f08c379a000000000000000000000000000000000000000000000000000000000815260040161124f906133f2565b60405180910390fd5b60ff60009054906101000a900460ff16156112a8576040517f08c379a000000000000000000000000000000000000000000000000000000000815260040161129f90612f73565b60405180910390fd5b4360fe5410156112ed576040517f08c379a00000000000000000000000000000000000000000000000000000000081526004016112e49061345e565b60405180910390fd5b670de0b6b3a76400003414611337576040517f08c379a000000000000000000000000000000000000000000000000000000000815260040161132e906134ca565b60405180910390fd5b60fc339080600181540180825580915050600190039060005260206000200160009091909190916101000a81548173ffffffffffffffffffffffffffffffffffffffff021916908373ffffffffffffffffffffffffffffffffffffffff1602179055506113a460fb611cb4565b60006113b060fb611985565b90506113bc3382611cca565b6113c68184611ce8565b80915050919050565b60007f01ffc9a7000000000000000000000000000000000000000000000000000000007bffffffffffffffffffffffffffffffffffffffffffffffffffffffff1916827bffffffffffffffffffffffffffffffffffffffffffffffffffffffff1916149050919050565b61144281611d5c565b611481576040517f08c379a00000000000000000000000000000000000000000000000000000000081526004016114789061306e565b60405180910390fd5b50565b600033905090565b816069600083815260200190815260200160002060006101000a81548173ffffffffffffffffffffffffffffffffffffffff021916908373ffffffffffffffffffffffffffffffffffffffff160217905550808273ffffffffffffffffffffffffffffffffffffffff166114ff83610a5a565b73ffffffffffffffffffffffffffffffffffffffff167f8c5be1e5ebec7d5bd14f71427d1e84f3dd0314c0f7b2291e5b200ac8c7c3b92560405160405180910390a45050565b60008061155183610a5a565b90508073ffffffffffffffffffffffffffffffffffffffff168473ffffffffffffffffffffffffffffffffffffffff161480611593575061159281856110ba565b5b806115d157508373ffffffffffffffffffffffffffffffffffffffff166115b984610719565b73ffffffffffffffffffffffffffffffffffffffff16145b91505092915050565b8273ffffffffffffffffffffffffffffffffffffffff166115fa82610a5a565b73ffffffffffffffffffffffffffffffffffffffff1614611650576040517f08c379a00000000000000000000000000000000000000000000000000000000081526004016116479061355c565b60405180910390fd5b600073ffffffffffffffffffffffffffffffffffffffff168273ffffffffffffffffffffffffffffffffffffffff1614156116c0576040517f08c379a00000000000000000000000000000000000000000000000000000000081526004016116b7906135ee565b60405180910390fd5b6116cb838383611dc8565b6116d660008261148c565b6001606860008573ffffffffffffffffffffffffffffffffffffffff1673ffffffffffffffffffffffffffffffffffffffff1681526020019081526020016000206000828254611726919061363d565b925050819055506001606860008473ffffffffffffffffffffffffffffffffffffffff1673ffffffffffffffffffffffffffffffffffffffff168152602001908152602001600020600082825461177d9190613671565b92505081905550816067600083815260200190815260200160002060006101000a81548173ffffffffffffffffffffffffffffffffffffffff021916908373ffffffffffffffffffffffffffffffffffffffff160217905550808273ffffffffffffffffffffffffffffffffffffffff168473ffffffffffffffffffffffffffffffffffffffff167fddf252ad1be2c89b69c2b068fc378daa952ba7f163c4a11628f55a4df523b3ef60405160405180910390a461183c838383611dcd565b505050565b611849611484565b73ffffffffffffffffffffffffffffffffffffffff16611867610c66565b73ffffffffffffffffffffffffffffffffffffffff16146118bd576040517f08c379a00000000000000000000000000000000000000000000000000000000081526004016118b490613713565b60405180910390fd5b565b600060c960009054906101000a900473ffffffffffffffffffffffffffffffffffffffff1690508160c960006101000a81548173ffffffffffffffffffffffffffffffffffffffff021916908373ffffffffffffffffffffffffffffffffffffffff1602179055508173ffffffffffffffffffffffffffffffffffffffff168173ffffffffffffffffffffffffffffffffffffffff167f8be0079c531659141344cd1fd0a4f28419497f9722a3daafe3b4186f6b6457e060405160405180910390a35050565b600081600001549050919050565b8173ffffffffffffffffffffffffffffffffffffffff168373ffffffffffffffffffffffffffffffffffffffff161415611a02576040517f08c379a00000000000000000000000000000000000000000000000000000000081526004016119f99061377f565b60405180910390fd5b80606a60008573ffffffffffffffffffffffffffffffffffffffff1673ffffffffffffffffffffffffffffffffffffffff16815260200190815260200160002060008473ffffffffffffffffffffffffffffffffffffffff1673ffffffffffffffffffffffffffffffffffffffff16815260200190815260200160002060006101000a81548160ff0219169083151502179055508173ffffffffffffffffffffffffffffffffffffffff168373ffffffffffffffffffffffffffffffffffffffff167f17307eab39ab6107e8899845ad3d59bd9653f200f220920489ca2b5937696c3183604051611af39190612529565b60405180910390a3505050565b611b0b8484846115da565b611b1784848484611dd2565b611b56576040517f08c379a0000000000000000000000000000000000000000000000000000000008152600401611b4d90613811565b60405180910390fd5b50505050565b606060405180602001604052806000815250905090565b6060611b7e82611439565b6000611b88611b5c565b90506000815111611ba85760405180602001604052806000815250611bd3565b80611bb284611f5a565b604051602001611bc392919061315c565b6040516020818303038152906040525b915050919050565b6000808273ffffffffffffffffffffffffffffffffffffffff163b119050919050565b600060019054906101000a900460ff16611c4d576040517f08c379a0000000000000000000000000000000000000000000000000000000008152600401611c44906138a3565b60405180910390fd5b611c5782826120bb565b5050565b600060019054906101000a900460ff16611caa576040517f08c379a0000000000000000000000000000000000000000000000000000000008152600401611ca1906138a3565b60405180910390fd5b611cb261213c565b565b6001816000016000828254019250508190555050565b611ce482826040518060200160405280600081525061219d565b5050565b611cf182611d5c565b611d30576040517f08c379a0000000000000000000000000000000000000000000000000000000008152600401611d2790613935565b60405180910390fd5b80609760008481526020019081526020016000209080519060200190611d579291906123d2565b505050565b60008073ffffffffffffffffffffffffffffffffffffffff166067600084815260200190815260200160002060009054906101000a900473ffffffffffffffffffffffffffffffffffffffff1673ffffffffffffffffffffffffffffffffffffffff1614159050919050565b505050565b505050565b6000611df38473ffffffffffffffffffffffffffffffffffffffff16611bdb565b15611f4d578373ffffffffffffffffffffffffffffffffffffffff1663150b7a02611e1c611484565b8786866040518563ffffffff1660e01b8152600401611e3e94939291906139aa565b6020604051808303816000875af1925050508015611e7a57506040513d601f19601f82011682018060405250810190611e779190613a0b565b60015b611efd573d8060008114611eaa576040519150601f19603f3d011682016040523d82523d6000602084013e611eaf565b606091505b50600081511415611ef5576040517f08c379a0000000000000000000000000000000000000000000000000000000008152600401611eec90613811565b60405180910390fd5b805181602001fd5b63150b7a0260e01b7bffffffffffffffffffffffffffffffffffffffffffffffffffffffff1916817bffffffffffffffffffffffffffffffffffffffffffffffffffffffff191614915050611f52565b600190505b949350505050565b60606000821415611fa2576040518060400160405280600181526020017f300000000000000000000000000000000000000000000000000000000000000081525090506120b6565b600082905060005b60008214611fd4578080611fbd90613a38565b915050600a82611fcd9190613a81565b9150611faa565b60008167ffffffffffffffff811115611ff057611fef61293c565b5b6040519080825280601f01601f1916602001820160405280156120225781602001600182028036833780820191505090505b5090505b600085146120af5760018261203b919061363d565b9150600a8561204a9190612fc2565b60306120569190613671565b60f81b81838151811061206c5761206b612ff3565b5b60200101907effffffffffffffffffffffffffffffffffffffffffffffffffffffffffffff1916908160001a905350600a856120a89190613a81565b9450612026565b8093505050505b919050565b600060019054906101000a900460ff1661210a576040517f08c379a0000000000000000000000000000000000000000000000000000000008152600401612101906138a3565b60405180910390fd5b81606590805190602001906121209291906123d2565b5080606690805190602001906121379291906123d2565b505050565b600060019054906101000a900460ff1661218b576040517f08c379a0000000000000000000000000000000000000000000000000000000008152600401612182906138a3565b60405180910390fd5b61219b612196611484565b6118bf565b565b6121a783836121f8565b6121b46000848484611dd2565b6121f3576040517f08c379a00000000000000000000000000000000000000000000000000000000081526004016121ea90613811565b60405180910390fd5b505050565b600073ffffffffffffffffffffffffffffffffffffffff168273ffffffffffffffffffffffffffffffffffffffff161415612268576040517f08c379a000000000000000000000000000000000000000000000000000000000815260040161225f90613afe565b60405180910390fd5b61227181611d5c565b156122b1576040517f08c379a00000000000000000000000000000000000000000000000000000000081526004016122a890613b6a565b60405180910390fd5b6122bd60008383611dc8565b6001606860008473ffffffffffffffffffffffffffffffffffffffff1673ffffffffffffffffffffffffffffffffffffffff168152602001908152602001600020600082825461230d9190613671565b92505081905550816067600083815260200190815260200160002060006101000a81548173ffffffffffffffffffffffffffffffffffffffff021916908373ffffffffffffffffffffffffffffffffffffffff160217905550808273ffffffffffffffffffffffffffffffffffffffff16600073ffffffffffffffffffffffffffffffffffffffff167fddf252ad1be2c89b69c2b068fc378daa952ba7f163c4a11628f55a4df523b3ef60405160405180910390a46123ce60008383611dcd565b5050565b8280546123de90612cad565b90600052602060002090601f0160209004810192826124005760008555612447565b82601f1061241957805160ff1916838001178555612447565b82800160010185558215612447579182015b8281111561244657825182559160200191906001019061242b565b5b5090506124549190612458565b5090565b5b80821115612471576000816000905550600101612459565b5090565b6000604051905090565b600080fd5b600080fd5b60007fffffffff0000000000000000000000000000000000000000000000000000000082169050919050565b6124be81612489565b81146124c957600080fd5b50565b6000813590506124db816124b5565b92915050565b6000602082840312156124f7576124f661247f565b5b6000612505848285016124cc565b91505092915050565b60008115159050919050565b6125238161250e565b82525050565b600060208201905061253e600083018461251a565b92915050565b600081519050919050565b600082825260208201905092915050565b60005b8381101561257e578082015181840152602081019050612563565b8381111561258d576000848401525b50505050565b6000601f19601f8301169050919050565b60006125af82612544565b6125b9818561254f565b93506125c9818560208601612560565b6125d281612593565b840191505092915050565b600060208201905081810360008301526125f781846125a4565b905092915050565b6000819050919050565b612612816125ff565b811461261d57600080fd5b50565b60008135905061262f81612609565b92915050565b60006020828403121561264b5761264a61247f565b5b600061265984828501612620565b91505092915050565b600073ffffffffffffffffffffffffffffffffffffffff82169050919050565b600061268d82612662565b9050919050565b61269d81612682565b82525050565b60006020820190506126b86000830184612694565b92915050565b6126c781612682565b81146126d257600080fd5b50565b6000813590506126e4816126be565b92915050565b600080604083850312156127015761270061247f565b5b600061270f858286016126d5565b925050602061272085828601612620565b9150509250929050565b612733816125ff565b82525050565b600060208201905061274e600083018461272a565b92915050565b60008060006060848603121561276d5761276c61247f565b5b600061277b868287016126d5565b935050602061278c868287016126d5565b925050604061279d86828701612620565b9150509250925092565b6000602082840312156127bd576127bc61247f565b5b60006127cb848285016126d5565b91505092915050565b600081519050919050565b600082825260208201905092915050565b6000819050602082019050919050565b600061280b82612662565b9050919050565b61281b81612800565b82525050565b600061282d8383612812565b60208301905092915050565b6000602082019050919050565b6000612851826127d4565b61285b81856127df565b9350612866836127f0565b8060005b8381101561289757815161287e8882612821565b975061288983612839565b92505060018101905061286a565b5085935050505092915050565b600060208201905081810360008301526128be8184612846565b905092915050565b6128cf8161250e565b81146128da57600080fd5b50565b6000813590506128ec816128c6565b92915050565b600080604083850312156129095761290861247f565b5b6000612917858286016126d5565b9250506020612928858286016128dd565b9150509250929050565b600080fd5b600080fd5b7f4e487b7100000000000000000000000000000000000000000000000000000000600052604160045260246000fd5b61297482612593565b810181811067ffffffffffffffff821117156129935761299261293c565b5b80604052505050565b60006129a6612475565b90506129b2828261296b565b919050565b600067ffffffffffffffff8211156129d2576129d161293c565b5b6129db82612593565b9050602081019050919050565b82818337600083830152505050565b6000612a0a612a05846129b7565b61299c565b905082815260208101848484011115612a2657612a25612937565b5b612a318482856129e8565b509392505050565b600082601f830112612a4e57612a4d612932565b5b8135612a5e8482602086016129f7565b91505092915050565b60008060008060808587031215612a8157612a8061247f565b5b6000612a8f878288016126d5565b9450506020612aa0878288016126d5565b9350506040612ab187828801612620565b925050606085013567ffffffffffffffff811115612ad257612ad1612484565b5b612ade87828801612a39565b91505092959194509250565b60008060408385031215612b0157612b0061247f565b5b6000612b0f85828601612620565b9250506020612b2085828601612620565b9150509250929050565b60008060408385031215612b4157612b4061247f565b5b6000612b4f858286016126d5565b9250506020612b60858286016126d5565b9150509250929050565b612b7381612800565b82525050565b6000602082019050612b8e6000830184612b6a565b92915050565b600067ffffffffffffffff821115612baf57612bae61293c565b5b612bb882612593565b9050602081019050919050565b6000612bd8612bd384612b94565b61299c565b905082815260208101848484011115612bf457612bf3612937565b5b612bff8482856129e8565b509392505050565b600082601f830112612c1c57612c1b612932565b5b8135612c2c848260208601612bc5565b91505092915050565b600060208284031215612c4b57612c4a61247f565b5b600082013567ffffffffffffffff811115612c6957612c68612484565b5b612c7584828501612c07565b91505092915050565b7f4e487b7100000000000000000000000000000000000000000000000000000000600052602260045260246000fd5b60006002820490506001821680612cc557607f821691505b60208210811415612cd957612cd8612c7e565b5b50919050565b7f4552433732313a20617070726f76616c20746f2063757272656e74206f776e6560008201527f7200000000000000000000000000000000000000000000000000000000000000602082015250565b6000612d3b60218361254f565b9150612d4682612cdf565b604082019050919050565b60006020820190508181036000830152612d6a81612d2e565b9050919050565b7f4552433732313a20617070726f76652063616c6c6572206973206e6f7420746f60008201527f6b656e206f776e6572206e6f7220617070726f76656420666f7220616c6c0000602082015250565b6000612dcd603e8361254f565b9150612dd882612d71565b604082019050919050565b60006020820190508181036000830152612dfc81612dc0565b9050919050565b7f4552433732313a2063616c6c6572206973206e6f7420746f6b656e206f776e6560008201527f72206e6f7220617070726f766564000000000000000000000000000000000000602082015250565b6000612e5f602e8361254f565b9150612e6a82612e03565b604082019050919050565b60006020820190508181036000830152612e8e81612e52565b9050919050565b7f4c6f7474657279206973207374696c6c206f70656e20666f72206e657720706c60008201527f6179657273210000000000000000000000000000000000000000000000000000602082015250565b6000612ef160268361254f565b9150612efc82612e95565b604082019050919050565b60006020820190508181036000830152612f2081612ee4565b9050919050565b7f4c6f747465727920656e64656421000000000000000000000000000000000000600082015250565b6000612f5d600e8361254f565b9150612f6882612f27565b602082019050919050565b60006020820190508181036000830152612f8c81612f50565b9050919050565b7f4e487b7100000000000000000000000000000000000000000000000000000000600052601260045260246000fd5b6000612fcd826125ff565b9150612fd8836125ff565b925082612fe857612fe7612f93565b5b828206905092915050565b7f4e487b7100000000000000000000000000000000000000000000000000000000600052603260045260246000fd5b7f4552433732313a20696e76616c696420746f6b656e2049440000000000000000600082015250565b600061305860188361254f565b915061306382613022565b602082019050919050565b600060208201905081810360008301526130878161304b565b9050919050565b7f4552433732313a2061646472657373207a65726f206973206e6f74206120766160008201527f6c6964206f776e65720000000000000000000000000000000000000000000000602082015250565b60006130ea60298361254f565b91506130f58261308e565b604082019050919050565b60006020820190508181036000830152613119816130dd565b9050919050565b600081905092915050565b600061313682612544565b6131408185613120565b9350613150818560208601612560565b80840191505092915050565b6000613168828561312b565b9150613174828461312b565b91508190509392505050565b60008160601b9050919050565b600061319882613180565b9050919050565b60006131aa8261318d565b9050919050565b6131c26131bd82612682565b61319f565b82525050565b6000819050919050565b6131e36131de826125ff565b6131c8565b82525050565b60006131f582856131b1565b60148201915061320582846131d2565b6020820191508190509392505050565b7f496e697469616c697a61626c653a20636f6e747261637420697320616c72656160008201527f647920696e697469616c697a6564000000000000000000000000000000000000602082015250565b6000613271602e8361254f565b915061327c82613215565b604082019050919050565b600060208201905081810360008301526132a081613264565b9050919050565b6000819050919050565b600060ff82169050919050565b6000819050919050565b60006132e36132de6132d9846132a7565b6132be565b6132b1565b9050919050565b6132f3816132c8565b82525050565b600060208201905061330e60008301846132ea565b92915050565b7f4f776e61626c653a206e6577206f776e657220697320746865207a65726f206160008201527f6464726573730000000000000000000000000000000000000000000000000000602082015250565b600061337060268361254f565b915061337b82613314565b604082019050919050565b6000602082019050818103600083015261339f81613363565b9050919050565b7f4c6f7474657279206973206e6f74207374617274656420796574210000000000600082015250565b60006133dc601b8361254f565b91506133e7826133a6565b602082019050919050565b6000602082019050818103600083015261340b816133cf565b9050919050565b7f4c6f747465727920697320636c6f73656420666f72206e657720626574732100600082015250565b6000613448601f8361254f565b915061345382613412565b602082019050919050565b600060208201905081810360008301526134778161343b565b9050919050565b7f5265717569726564207469636b65742070726963652069732031204554482100600082015250565b60006134b4601f8361254f565b91506134bf8261347e565b602082019050919050565b600060208201905081810360008301526134e3816134a7565b9050919050565b7f4552433732313a207472616e736665722066726f6d20696e636f72726563742060008201527f6f776e6572000000000000000000000000000000000000000000000000000000602082015250565b600061354660258361254f565b9150613551826134ea565b604082019050919050565b6000602082019050818103600083015261357581613539565b9050919050565b7f4552433732313a207472616e7366657220746f20746865207a65726f2061646460008201527f7265737300000000000000000000000000000000000000000000000000000000602082015250565b60006135d860248361254f565b91506135e38261357c565b604082019050919050565b60006020820190508181036000830152613607816135cb565b9050919050565b7f4e487b7100000000000000000000000000000000000000000000000000000000600052601160045260246000fd5b6000613648826125ff565b9150613653836125ff565b9250828210156136665761366561360e565b5b828203905092915050565b600061367c826125ff565b9150613687836125ff565b9250827fffffffffffffffffffffffffffffffffffffffffffffffffffffffffffffffff038211156136bc576136bb61360e565b5b828201905092915050565b7f4f776e61626c653a2063616c6c6572206973206e6f7420746865206f776e6572600082015250565b60006136fd60208361254f565b9150613708826136c7565b602082019050919050565b6000602082019050818103600083015261372c816136f0565b9050919050565b7f4552433732313a20617070726f766520746f2063616c6c657200000000000000600082015250565b600061376960198361254f565b915061377482613733565b602082019050919050565b600060208201905081810360008301526137988161375c565b9050919050565b7f4552433732313a207472616e7366657220746f206e6f6e20455243373231526560008201527f63656976657220696d706c656d656e7465720000000000000000000000000000602082015250565b60006137fb60328361254f565b91506138068261379f565b604082019050919050565b6000602082019050818103600083015261382a816137ee565b9050919050565b7f496e697469616c697a61626c653a20636f6e7472616374206973206e6f74206960008201527f6e697469616c697a696e67000000000000000000000000000000000000000000602082015250565b600061388d602b8361254f565b915061389882613831565b604082019050919050565b600060208201905081810360008301526138bc81613880565b9050919050565b7f45524337323155524953746f726167653a2055524920736574206f66206e6f6e60008201527f6578697374656e7420746f6b656e000000000000000000000000000000000000602082015250565b600061391f602e8361254f565b915061392a826138c3565b604082019050919050565b6000602082019050818103600083015261394e81613912565b9050919050565b600081519050919050565b600082825260208201905092915050565b600061397c82613955565b6139868185613960565b9350613996818560208601612560565b61399f81612593565b840191505092915050565b60006080820190506139bf6000830187612694565b6139cc6020830186612694565b6139d9604083018561272a565b81810360608301526139eb8184613971565b905095945050505050565b600081519050613a05816124b5565b92915050565b600060208284031215613a2157613a2061247f565b5b6000613a2f848285016139f6565b91505092915050565b6000613a43826125ff565b91507fffffffffffffffffffffffffffffffffffffffffffffffffffffffffffffffff821415613a7657613a7561360e565b5b600182019050919050565b6000613a8c826125ff565b9150613a97836125ff565b925082613aa757613aa6612f93565b5b828204905092915050565b7f4552433732313a206d696e7420746f20746865207a65726f2061646472657373600082015250565b6000613ae860208361254f565b9150613af382613ab2565b602082019050919050565b60006020820190508181036000830152613b1781613adb565b9050919050565b7f4552433732313a20746f6b656e20616c7265616479206d696e74656400000000600082015250565b6000613b54601c8361254f565b9150613b5f82613b1e565b602082019050919050565b60006020820190508181036000830152613b8381613b47565b905091905056fea2646970667358221220003d0d2a630c6c72be60c3dcdbb1c6d6bf38cdc68b99303b6383bbbc4a15fd0f64736f6c634300080b0033",
  "linkReferences": {},
  "deployedLinkReferences": {}
}