{
  "_format": "hh-sol-artifact-1",
  "contractName": "LotteryNft",
  "sourceName": "contracts/LotteryNft.sol",
  "abi": [
    {
      "anonymous": false,
      "inputs": [
        {
          "indexed": true,
          "internalType": "address",
          "name": "owner",
          "type": "address"
        },
        {
          "indexed": true,
          "internalType": "address",
          "name": "approved",
          "type": "address"
        },
        {
          "indexed": true,
          "internalType": "uint256",
          "name": "tokenId",
          "type": "uint256"
        }
      ],
      "name": "Approval",
      "type": "event"
    },
    {
      "anonymous": false,
      "inputs": [
        {
          "indexed": true,
          "internalType": "address",
          "name": "owner",
          "type": "address"
        },
        {
          "indexed": true,
          "internalType": "address",
          "name": "operator",
          "type": "address"
        },
        {
          "indexed": false,
          "internalType": "bool",
          "name": "approved",
          "type": "bool"
        }
      ],
      "name": "ApprovalForAll",
      "type": "event"
    },
    {
      "anonymous": false,
      "inputs": [
        {
          "indexed": false,
          "internalType": "uint8",
          "name": "version",
          "type": "uint8"
        }
      ],
      "name": "Initialized",
      "type": "event"
    },
    {
      "anonymous": false,
      "inputs": [
        {
          "indexed": true,
          "internalType": "address",
          "name": "previousOwner",
          "type": "address"
        },
        {
          "indexed": true,
          "internalType": "address",
          "name": "newOwner",
          "type": "address"
        }
      ],
      "name": "OwnershipTransferred",
      "type": "event"
    },
    {
      "anonymous": false,
      "inputs": [
        {
          "indexed": true,
          "internalType": "address",
          "name": "from",
          "type": "address"
        },
        {
          "indexed": true,
          "internalType": "address",
          "name": "to",
          "type": "address"
        },
        {
          "indexed": true,
          "internalType": "uint256",
          "name": "tokenId",
          "type": "uint256"
        }
      ],
      "name": "Transfer",
      "type": "event"
    },
    {
      "inputs": [
        {
          "internalType": "address",
          "name": "to",
          "type": "address"
        },
        {
          "internalType": "uint256",
          "name": "tokenId",
          "type": "uint256"
        }
      ],
      "name": "approve",
      "outputs": [],
      "stateMutability": "nonpayable",
      "type": "function"
    },
    {
      "inputs": [
        {
          "internalType": "address",
          "name": "owner",
          "type": "address"
        }
      ],
      "name": "balanceOf",
      "outputs": [
        {
          "internalType": "uint256",
          "name": "",
          "type": "uint256"
        }
      ],
      "stateMutability": "view",
      "type": "function"
    },
    {
      "inputs": [
        {
          "internalType": "string",
          "name": "tokenURI",
          "type": "string"
        }
      ],
      "name": "buyTicket",
      "outputs": [
        {
          "internalType": "uint256",
          "name": "",
          "type": "uint256"
        }
      ],
      "stateMutability": "payable",
      "type": "function"
    },
    {
      "inputs": [
        {
          "internalType": "uint256",
          "name": "tokenId",
          "type": "uint256"
        }
      ],
      "name": "getApproved",
      "outputs": [
        {
          "internalType": "address",
          "name": "",
          "type": "address"
        }
      ],
      "stateMutability": "view",
      "type": "function"
    },
    {
      "inputs": [],
      "name": "getBalance",
      "outputs": [
        {
          "internalType": "uint256",
          "name": "",
          "type": "uint256"
        }
      ],
      "stateMutability": "view",
      "type": "function"
    },
    {
      "inputs": [],
      "name": "getPlayers",
      "outputs": [
        {
          "internalType": "address payable[]",
          "name": "",
          "type": "address[]"
        }
      ],
      "stateMutability": "view",
      "type": "function"
    },
    {
      "inputs": [],
      "name": "getRandomNumber",
      "outputs": [
        {
          "internalType": "uint256",
          "name": "",
          "type": "uint256"
        }
      ],
      "stateMutability": "view",
      "type": "function"
    },
    {
      "inputs": [],
      "name": "getTokensCounter",
      "outputs": [
        {
          "internalType": "uint256",
          "name": "",
          "type": "uint256"
        }
      ],
      "stateMutability": "view",
      "type": "function"
    },
    {
      "inputs": [
        {
          "internalType": "uint256",
          "name": "startingBlock",
          "type": "uint256"
        },
        {
          "internalType": "uint256",
          "name": "endingBlock",
          "type": "uint256"
        }
      ],
      "name": "initialize",
      "outputs": [],
      "stateMutability": "nonpayable",
      "type": "function"
    },
    {
      "inputs": [
        {
          "internalType": "address",
          "name": "owner",
          "type": "address"
        },
        {
          "internalType": "address",
          "name": "operator",
          "type": "address"
        }
      ],
      "name": "isApprovedForAll",
      "outputs": [
        {
          "internalType": "bool",
          "name": "",
          "type": "bool"
        }
      ],
      "stateMutability": "view",
      "type": "function"
    },
    {
      "inputs": [],
      "name": "name",
      "outputs": [
        {
          "internalType": "string",
          "name": "",
          "type": "string"
        }
      ],
      "stateMutability": "view",
      "type": "function"
    },
    {
      "inputs": [],
      "name": "owner",
      "outputs": [
        {
          "internalType": "address",
          "name": "",
          "type": "address"
        }
      ],
      "stateMutability": "view",
      "type": "function"
    },
    {
      "inputs": [
        {
          "internalType": "uint256",
          "name": "tokenId",
          "type": "uint256"
        }
      ],
      "name": "ownerOf",
      "outputs": [
        {
          "internalType": "address",
          "name": "",
          "type": "address"
        }
      ],
      "stateMutability": "view",
      "type": "function"
    },
    {
      "inputs": [],
      "name": "pickWinner",
      "outputs": [],
      "stateMutability": "nonpayable",
      "type": "function"
    },
    {
      "inputs": [
        {
          "internalType": "uint256",
          "name": "",
          "type": "uint256"
        }
      ],
      "name": "players",
      "outputs": [
        {
          "internalType": "address payable",
          "name": "",
          "type": "address"
        }
      ],
      "stateMutability": "view",
      "type": "function"
    },
    {
      "inputs": [],
      "name": "renounceOwnership",
      "outputs": [],
      "stateMutability": "nonpayable",
      "type": "function"
    },
    {
      "inputs": [
        {
          "internalType": "address",
          "name": "from",
          "type": "address"
        },
        {
          "internalType": "address",
          "name": "to",
          "type": "address"
        },
        {
          "internalType": "uint256",
          "name": "tokenId",
          "type": "uint256"
        }
      ],
      "name": "safeTransferFrom",
      "outputs": [],
      "stateMutability": "nonpayable",
      "type": "function"
    },
    {
      "inputs": [
        {
          "internalType": "address",
          "name": "from",
          "type": "address"
        },
        {
          "internalType": "address",
          "name": "to",
          "type": "address"
        },
        {
          "internalType": "uint256",
          "name": "tokenId",
          "type": "uint256"
        },
        {
          "internalType": "bytes",
          "name": "data",
          "type": "bytes"
        }
      ],
      "name": "safeTransferFrom",
      "outputs": [],
      "stateMutability": "nonpayable",
      "type": "function"
    },
    {
      "inputs": [
        {
          "internalType": "address",
          "name": "operator",
          "type": "address"
        },
        {
          "internalType": "bool",
          "name": "approved",
          "type": "bool"
        }
      ],
      "name": "setApprovalForAll",
      "outputs": [],
      "stateMutability": "nonpayable",
      "type": "function"
    },
    {
      "inputs": [
        {
          "internalType": "bytes4",
          "name": "interfaceId",
          "type": "bytes4"
        }
      ],
      "name": "supportsInterface",
      "outputs": [
        {
          "internalType": "bool",
          "name": "",
          "type": "bool"
        }
      ],
      "stateMutability": "view",
      "type": "function"
    },
    {
      "inputs": [],
      "name": "symbol",
      "outputs": [
        {
          "internalType": "string",
          "name": "",
          "type": "string"
        }
      ],
      "stateMutability": "view",
      "type": "function"
    },
    {
      "inputs": [
        {
          "internalType": "uint256",
          "name": "tokenId",
          "type": "uint256"
        }
      ],
      "name": "tokenURI",
      "outputs": [
        {
          "internalType": "string",
          "name": "",
          "type": "string"
        }
      ],
      "stateMutability": "view",
      "type": "function"
    },
    {
      "inputs": [
        {
          "internalType": "address",
          "name": "from",
          "type": "address"
        },
        {
          "internalType": "address",
          "name": "to",
          "type": "address"
        },
        {
          "internalType": "uint256",
          "name": "tokenId",
          "type": "uint256"
        }
      ],
      "name": "transferFrom",
      "outputs": [],
      "stateMutability": "nonpayable",
      "type": "function"
    },
    {
      "inputs": [
        {
          "internalType": "address",
          "name": "newOwner",
          "type": "address"
        }
      ],
      "name": "transferOwnership",
      "outputs": [],
      "stateMutability": "nonpayable",
      "type": "function"
    }
  ],
  "bytecode": "0x608060405234801561001057600080fd5b506140eb806100206000396000f3fe60806040526004361061014b5760003560e01c80638da5cb5b116100b6578063dbdff2c11161006f578063dbdff2c11461047e578063e4a30116146104a9578063e985e9c5146104d2578063f2fde38b1461050f578063f71d96cb14610538578063fa30b251146105755761014b565b80638da5cb5b1461036e578063955eff3b1461039957806395d89b41146103c4578063a22cb465146103ef578063b88d4fde14610418578063c87b56dd146104415761014b565b806342842e0e1161010857806342842e0e146102725780635d495aea1461029b5780636352211e146102b257806370a08231146102ef578063715018a61461032c5780638b5b9ccc146103435761014b565b806301ffc9a71461015057806306fdde031461018d578063081812fc146101b8578063095ea7b3146101f557806312065fe01461021e57806323b872dd14610249575b600080fd5b34801561015c57600080fd5b5061017760048036038101906101729190612a0c565b6105a5565b6040516101849190612a54565b60405180910390f35b34801561019957600080fd5b506101a2610687565b6040516101af9190612b08565b60405180910390f35b3480156101c457600080fd5b506101df60048036038101906101da9190612b60565b610719565b6040516101ec9190612bce565b60405180910390f35b34801561020157600080fd5b5061021c60048036038101906102179190612c15565b61075f565b005b34801561022a57600080fd5b50610233610877565b6040516102409190612c64565b60405180910390f35b34801561025557600080fd5b50610270600480360381019061026b9190612c7f565b6108bb565b005b34801561027e57600080fd5b5061029960048036038101906102949190612c7f565b61091b565b005b3480156102a757600080fd5b506102b061093b565b005b3480156102be57600080fd5b506102d960048036038101906102d49190612b60565b610bd6565b6040516102e69190612bce565b60405180910390f35b3480156102fb57600080fd5b5061031660048036038101906103119190612cd2565b610c88565b6040516103239190612c64565b60405180910390f35b34801561033857600080fd5b50610341610d40565b005b34801561034f57600080fd5b50610358610d54565b6040516103659190612dcf565b60405180910390f35b34801561037a57600080fd5b50610383610e1e565b6040516103909190612bce565b60405180910390f35b3480156103a557600080fd5b506103ae610e48565b6040516103bb9190612c64565b60405180910390f35b3480156103d057600080fd5b506103d9610e95565b6040516103e69190612b08565b60405180910390f35b3480156103fb57600080fd5b5061041660048036038101906104119190612e1d565b610f27565b005b34801561042457600080fd5b5061043f600480360381019061043a9190612f92565b610f3d565b005b34801561044d57600080fd5b5061046860048036038101906104639190612b60565b610f9f565b6040516104759190612b08565b60405180910390f35b34801561048a57600080fd5b506104936110b2565b6040516104a09190612c64565b60405180910390f35b3480156104b557600080fd5b506104d060048036038101906104cb9190613015565b611128565b005b3480156104de57600080fd5b506104f960048036038101906104f49190613055565b61139e565b6040516105069190612a54565b60405180910390f35b34801561051b57600080fd5b5061053660048036038101906105319190612cd2565b611432565b005b34801561054457600080fd5b5061055f600480360381019061055a9190612b60565b6114b6565b60405161056c91906130a4565b60405180910390f35b61058f600480360381019061058a9190613160565b6114f5565b60405161059c9190612c64565b60405180910390f35b60007f80ac58cd000000000000000000000000000000000000000000000000000000007bffffffffffffffffffffffffffffffffffffffffffffffffffffffff1916827bffffffffffffffffffffffffffffffffffffffffffffffffffffffff1916148061067057507f5b5e139f000000000000000000000000000000000000000000000000000000007bffffffffffffffffffffffffffffffffffffffffffffffffffffffff1916827bffffffffffffffffffffffffffffffffffffffffffffffffffffffff1916145b80610680575061067f826118f7565b5b9050919050565b606060658054610696906131d8565b80601f01602080910402602001604051908101604052809291908181526020018280546106c2906131d8565b801561070f5780601f106106e45761010080835404028352916020019161070f565b820191906000526020600020905b8154815290600101906020018083116106f257829003601f168201915b5050505050905090565b600061072482611961565b6069600083815260200190815260200160002060009054906101000a900473ffffffffffffffffffffffffffffffffffffffff169050919050565b600061076a82610bd6565b90508073ffffffffffffffffffffffffffffffffffffffff168373ffffffffffffffffffffffffffffffffffffffff1614156107db576040517f08c379a00000000000000000000000000000000000000000000000000000000081526004016107d29061327c565b60405180910390fd5b8073ffffffffffffffffffffffffffffffffffffffff166107fa6119ac565b73ffffffffffffffffffffffffffffffffffffffff1614806108295750610828816108236119ac565b61139e565b5b610868576040517f08c379a000000000000000000000000000000000000000000000000000000000815260040161085f9061330e565b60405180910390fd5b61087283836119b4565b505050565b600061088d67fb6df108f945b67f60c01b611a6d565b6108a16769ecb7a60cebf51260c01b611a6d565b6108b567f9f0122b15ec927160c01b611a6d565b47905090565b6108cc6108c66119ac565b82611a70565b61090b576040517f08c379a0000000000000000000000000000000000000000000000000000000008152600401610902906133a0565b60405180910390fd5b610916838383611b05565b505050565b61093683838360405180602001604052806000815250610f3d565b505050565b61094f6746e8777ccb4097af60c01b611a6d565b610957611d6c565b61096b673d9b4c60ac064da260c01b611a6d565b61097f67228c2886cdfc437960c01b611a6d565b610993672e28ec2688e7752660c01b611a6d565b6109a7675c602733c36ef4ae60c01b611a6d565b6109bb67730ba9b4f65363b260c01b611a6d565b4360fe54106109ff576040517f08c379a00000000000000000000000000000000000000000000000000000000081526004016109f690613432565b60405180910390fd5b610a136727577d01e144836160c01b611a6d565b610a2767ba5c0359e69276c160c01b611a6d565b610a3b67cc7be1e5069b0cb960c01b611a6d565b610a4f67279476526d6bb64d60c01b611a6d565b60ff60009054906101000a900460ff1615610a9f576040517f08c379a0000000000000000000000000000000000000000000000000000000008152600401610a969061349e565b60405180910390fd5b610ab36785a257f59769da5f60c01b611a6d565b610ac767c718354e21c483aa60c01b611a6d565b610adb67530b0b7824d61a2660c01b611a6d565b600060fc80549050610aeb6110b2565b610af591906134ed565b9050610b0b674ad8aeaca395c3e260c01b611a6d565b610b1f67d34bc02e30a433d260c01b611a6d565b60fc8181548110610b3357610b3261351e565b5b9060005260206000200160009054906101000a900473ffffffffffffffffffffffffffffffffffffffff1673ffffffffffffffffffffffffffffffffffffffff166108fc479081150290604051600060405180830381858888f19350505050158015610ba3573d6000803e3d6000fd5b50610bb867090400ce44b10b7660c01b611a6d565b600160ff60006101000a81548160ff02191690831515021790555050565b6000806067600084815260200190815260200160002060009054906101000a900473ffffffffffffffffffffffffffffffffffffffff169050600073ffffffffffffffffffffffffffffffffffffffff168173ffffffffffffffffffffffffffffffffffffffff161415610c7f576040517f08c379a0000000000000000000000000000000000000000000000000000000008152600401610c7690613599565b60405180910390fd5b80915050919050565b60008073ffffffffffffffffffffffffffffffffffffffff168273ffffffffffffffffffffffffffffffffffffffff161415610cf9576040517f08c379a0000000000000000000000000000000000000000000000000000000008152600401610cf09061362b565b60405180910390fd5b606860008373ffffffffffffffffffffffffffffffffffffffff1673ffffffffffffffffffffffffffffffffffffffff168152602001908152602001600020549050919050565b610d48611d6c565b610d526000611dea565b565b6060610d6a677eb182fb4e1d076860c01b611a6d565b610d7e67f583d825e362393860c01b611a6d565b610d9267210f6a07d2132be860c01b611a6d565b60fc805480602002602001604051908101604052809291908181526020018280548015610e1457602002820191906000526020600020905b8160009054906101000a900473ffffffffffffffffffffffffffffffffffffffff1673ffffffffffffffffffffffffffffffffffffffff1681526020019060010190808311610dca575b5050505050905090565b600060c960009054906101000a900473ffffffffffffffffffffffffffffffffffffffff16905090565b6000610e5e67227067bb313768eb60c01b611a6d565b610e7267f4a82282d21c9d3e60c01b611a6d565b610e8667bdc78a572032f1e960c01b611a6d565b610e9060fb611eb0565b905090565b606060668054610ea4906131d8565b80601f0160208091040260200160405190810160405280929190818152602001828054610ed0906131d8565b8015610f1d5780601f10610ef257610100808354040283529160200191610f1d565b820191906000526020600020905b815481529060010190602001808311610f0057829003601f168201915b5050505050905090565b610f39610f326119ac565b8383611ebe565b5050565b610f4e610f486119ac565b83611a70565b610f8d576040517f08c379a0000000000000000000000000000000000000000000000000000000008152600401610f84906133a0565b60405180910390fd5b610f998484848461202b565b50505050565b6060610faa82611961565b6000609760008481526020019081526020016000208054610fca906131d8565b80601f0160208091040260200160405190810160405280929190818152602001828054610ff6906131d8565b80156110435780601f1061101857610100808354040283529160200191611043565b820191906000526020600020905b81548152906001019060200180831161102657829003601f168201915b505050505090506000611054612087565b905060008151141561106a5781925050506110ad565b60008251111561109f578082604051602001611087929190613687565b604051602081830303815290604052925050506110ad565b6110a88461209e565b925050505b919050565b60006110c867a21c689452f5171b60c01b611a6d565b6110dc6756779dcf0269321160c01b611a6d565b6110f0672db658be0dcd0d3460c01b611a6d565b6110f8610e1e565b4260405160200161110a929190613714565b6040516020818303038152906040528051906020012060001c905090565b61113c671e8a7e5c5159637160c01b611a6d565b60008060019054906101000a900460ff1615905080801561116d5750600160008054906101000a900460ff1660ff16105b8061119a575061117c30612106565b1580156111995750600160008054906101000a900460ff1660ff16145b5b6111d9576040517f08c379a00000000000000000000000000000000000000000000000000000000081526004016111d0906137b2565b60405180910390fd5b60016000806101000a81548160ff021916908360ff1602179055508015611216576001600060016101000a81548160ff0219169083151502179055505b61122a67edd5c15cd19580d460c01b611a6d565b61123e67307f7cfff4e488ba60c01b611a6d565b61125267a352ea559a06c1d460c01b611a6d565b6112666792e046444fbeadf560c01b611a6d565b6112da6040518060400160405280600781526020017f4c6f7474657279000000000000000000000000000000000000000000000000008152506040518060400160405280600781526020017f4c4f545445525900000000000000000000000000000000000000000000000000815250612129565b6112ee679c0b403345f7ba4460c01b611a6d565b61130267285548148e9f4f2560c01b611a6d565b61130a612186565b61131e6714f9309f1c523c7d60c01b611a6d565b8260fd81905550611339678f9c313ac6ab6b2a60c01b611a6d565b8160fe8190555080156113995760008060016101000a81548160ff0219169083151502179055507f7f26b83ff96e1f2b6a682f133852f6798a09c465da95921460cefb384740249860016040516113909190613824565b60405180910390a15b505050565b6000606a60008473ffffffffffffffffffffffffffffffffffffffff1673ffffffffffffffffffffffffffffffffffffffff16815260200190815260200160002060008373ffffffffffffffffffffffffffffffffffffffff1673ffffffffffffffffffffffffffffffffffffffff16815260200190815260200160002060009054906101000a900460ff16905092915050565b61143a611d6c565b600073ffffffffffffffffffffffffffffffffffffffff168173ffffffffffffffffffffffffffffffffffffffff1614156114aa576040517f08c379a00000000000000000000000000000000000000000000000000000000081526004016114a1906138b1565b60405180910390fd5b6114b381611dea565b50565b60fc81815481106114c657600080fd5b906000526020600020016000915054906101000a900473ffffffffffffffffffffffffffffffffffffffff1681565b600061150b67f843a65590c4fe1f60c01b611a6d565b61151f67c507375b8837e89a60c01b611a6d565b6115336726da17cd9ef0809d60c01b611a6d565b61154767a1fc9af61a3c8a5360c01b611a6d565b4360fd54111561158c576040517f08c379a00000000000000000000000000000000000000000000000000000000081526004016115839061391d565b60405180910390fd5b6115a0677931b1491cf44be460c01b611a6d565b6115b4672bb857b989bae31760c01b611a6d565b6115c867247bff05a401af0960c01b611a6d565b6115dc67c6e0de816a29e08760c01b611a6d565b60ff60009054906101000a900460ff161561162c576040517f08c379a00000000000000000000000000000000000000000000000000000000081526004016116239061349e565b60405180910390fd5b611640671d2583a66f23f6c060c01b611a6d565b61165467eba7db17fc499c4b60c01b611a6d565b611668674c160168fb98197e60c01b611a6d565b61167c67cb90907460deab8b60c01b611a6d565b4360fe5410156116c1576040517f08c379a00000000000000000000000000000000000000000000000000000000081526004016116b890613989565b60405180910390fd5b6116d5672d129924c0abafe860c01b611a6d565b6116e9672a54c11231290b7260c01b611a6d565b6116fd679a67e6d93addead960c01b611a6d565b611711672edd09a35e410a5860c01b611a6d565b670de0b6b3a7640000341461175b576040517f08c379a0000000000000000000000000000000000000000000000000000000008152600401611752906139f5565b60405180910390fd5b61176f67c9c04d913e45558960c01b611a6d565b61178367de08bebaecc8073560c01b611a6d565b61179767fb3bee3f719874d360c01b611a6d565b60fc339080600181540180825580915050600190039060005260206000200160009091909190916101000a81548173ffffffffffffffffffffffffffffffffffffffff021916908373ffffffffffffffffffffffffffffffffffffffff16021790555061180e6760bc9fbd4caafdc260c01b611a6d565b61182267604a30e835c8c64660c01b611a6d565b61182c60fb6121df565b6118406786f0d498daae1e5d60c01b611a6d565b61185467ccc14c2b1e59386760c01b611a6d565b600061186060fb611eb0565b905061187667d088b1fcbc56218760c01b611a6d565b61188a6774fe18baafced4c160c01b611a6d565b61189433826121f5565b6118a86772dc8070f33fa38a60c01b611a6d565b6118bc67901d29da1b44a39160c01b611a6d565b6118c68184612213565b6118da67bc78062004cff41760c01b611a6d565b6118ee677d966cc0b90cae4760c01b611a6d565b80915050919050565b60007f01ffc9a7000000000000000000000000000000000000000000000000000000007bffffffffffffffffffffffffffffffffffffffffffffffffffffffff1916827bffffffffffffffffffffffffffffffffffffffffffffffffffffffff1916149050919050565b61196a81612287565b6119a9576040517f08c379a00000000000000000000000000000000000000000000000000000000081526004016119a090613599565b60405180910390fd5b50565b600033905090565b816069600083815260200190815260200160002060006101000a81548173ffffffffffffffffffffffffffffffffffffffff021916908373ffffffffffffffffffffffffffffffffffffffff160217905550808273ffffffffffffffffffffffffffffffffffffffff16611a2783610bd6565b73ffffffffffffffffffffffffffffffffffffffff167f8c5be1e5ebec7d5bd14f71427d1e84f3dd0314c0f7b2291e5b200ac8c7c3b92560405160405180910390a45050565b50565b600080611a7c83610bd6565b90508073ffffffffffffffffffffffffffffffffffffffff168473ffffffffffffffffffffffffffffffffffffffff161480611abe5750611abd818561139e565b5b80611afc57508373ffffffffffffffffffffffffffffffffffffffff16611ae484610719565b73ffffffffffffffffffffffffffffffffffffffff16145b91505092915050565b8273ffffffffffffffffffffffffffffffffffffffff16611b2582610bd6565b73ffffffffffffffffffffffffffffffffffffffff1614611b7b576040517f08c379a0000000000000000000000000000000000000000000000000000000008152600401611b7290613a87565b60405180910390fd5b600073ffffffffffffffffffffffffffffffffffffffff168273ffffffffffffffffffffffffffffffffffffffff161415611beb576040517f08c379a0000000000000000000000000000000000000000000000000000000008152600401611be290613b19565b60405180910390fd5b611bf68383836122f3565b611c016000826119b4565b6001606860008573ffffffffffffffffffffffffffffffffffffffff1673ffffffffffffffffffffffffffffffffffffffff1681526020019081526020016000206000828254611c519190613b68565b925050819055506001606860008473ffffffffffffffffffffffffffffffffffffffff1673ffffffffffffffffffffffffffffffffffffffff1681526020019081526020016000206000828254611ca89190613b9c565b92505081905550816067600083815260200190815260200160002060006101000a81548173ffffffffffffffffffffffffffffffffffffffff021916908373ffffffffffffffffffffffffffffffffffffffff160217905550808273ffffffffffffffffffffffffffffffffffffffff168473ffffffffffffffffffffffffffffffffffffffff167fddf252ad1be2c89b69c2b068fc378daa952ba7f163c4a11628f55a4df523b3ef60405160405180910390a4611d678383836122f8565b505050565b611d746119ac565b73ffffffffffffffffffffffffffffffffffffffff16611d92610e1e565b73ffffffffffffffffffffffffffffffffffffffff1614611de8576040517f08c379a0000000000000000000000000000000000000000000000000000000008152600401611ddf90613c3e565b60405180910390fd5b565b600060c960009054906101000a900473ffffffffffffffffffffffffffffffffffffffff1690508160c960006101000a81548173ffffffffffffffffffffffffffffffffffffffff021916908373ffffffffffffffffffffffffffffffffffffffff1602179055508173ffffffffffffffffffffffffffffffffffffffff168173ffffffffffffffffffffffffffffffffffffffff167f8be0079c531659141344cd1fd0a4f28419497f9722a3daafe3b4186f6b6457e060405160405180910390a35050565b600081600001549050919050565b8173ffffffffffffffffffffffffffffffffffffffff168373ffffffffffffffffffffffffffffffffffffffff161415611f2d576040517f08c379a0000000000000000000000000000000000000000000000000000000008152600401611f2490613caa565b60405180910390fd5b80606a60008573ffffffffffffffffffffffffffffffffffffffff1673ffffffffffffffffffffffffffffffffffffffff16815260200190815260200160002060008473ffffffffffffffffffffffffffffffffffffffff1673ffffffffffffffffffffffffffffffffffffffff16815260200190815260200160002060006101000a81548160ff0219169083151502179055508173ffffffffffffffffffffffffffffffffffffffff168373ffffffffffffffffffffffffffffffffffffffff167f17307eab39ab6107e8899845ad3d59bd9653f200f220920489ca2b5937696c318360405161201e9190612a54565b60405180910390a3505050565b612036848484611b05565b612042848484846122fd565b612081576040517f08c379a000000000000000000000000000000000000000000000000000000000815260040161207890613d3c565b60405180910390fd5b50505050565b606060405180602001604052806000815250905090565b60606120a982611961565b60006120b3612087565b905060008151116120d357604051806020016040528060008152506120fe565b806120dd84612485565b6040516020016120ee929190613687565b6040516020818303038152906040525b915050919050565b6000808273ffffffffffffffffffffffffffffffffffffffff163b119050919050565b600060019054906101000a900460ff16612178576040517f08c379a000000000000000000000000000000000000000000000000000000000815260040161216f90613dce565b60405180910390fd5b61218282826125e6565b5050565b600060019054906101000a900460ff166121d5576040517f08c379a00000000000000000000000000000000000000000000000000000000081526004016121cc90613dce565b60405180910390fd5b6121dd612667565b565b6001816000016000828254019250508190555050565b61220f8282604051806020016040528060008152506126c8565b5050565b61221c82612287565b61225b576040517f08c379a000000000000000000000000000000000000000000000000000000000815260040161225290613e60565b60405180910390fd5b806097600084815260200190815260200160002090805190602001906122829291906128fd565b505050565b60008073ffffffffffffffffffffffffffffffffffffffff166067600084815260200190815260200160002060009054906101000a900473ffffffffffffffffffffffffffffffffffffffff1673ffffffffffffffffffffffffffffffffffffffff1614159050919050565b505050565b505050565b600061231e8473ffffffffffffffffffffffffffffffffffffffff16612106565b15612478578373ffffffffffffffffffffffffffffffffffffffff1663150b7a026123476119ac565b8786866040518563ffffffff1660e01b81526004016123699493929190613ed5565b6020604051808303816000875af19250505080156123a557506040513d601f19601f820116820180604052508101906123a29190613f36565b60015b612428573d80600081146123d5576040519150601f19603f3d011682016040523d82523d6000602084013e6123da565b606091505b50600081511415612420576040517f08c379a000000000000000000000000000000000000000000000000000000000815260040161241790613d3c565b60405180910390fd5b805181602001fd5b63150b7a0260e01b7bffffffffffffffffffffffffffffffffffffffffffffffffffffffff1916817bffffffffffffffffffffffffffffffffffffffffffffffffffffffff19161491505061247d565b600190505b949350505050565b606060008214156124cd576040518060400160405280600181526020017f300000000000000000000000000000000000000000000000000000000000000081525090506125e1565b600082905060005b600082146124ff5780806124e890613f63565b915050600a826124f89190613fac565b91506124d5565b60008167ffffffffffffffff81111561251b5761251a612e67565b5b6040519080825280601f01601f19166020018201604052801561254d5781602001600182028036833780820191505090505b5090505b600085146125da576001826125669190613b68565b9150600a8561257591906134ed565b60306125819190613b9c565b60f81b8183815181106125975761259661351e565b5b60200101907effffffffffffffffffffffffffffffffffffffffffffffffffffffffffffff1916908160001a905350600a856125d39190613fac565b9450612551565b8093505050505b919050565b600060019054906101000a900460ff16612635576040517f08c379a000000000000000000000000000000000000000000000000000000000815260040161262c90613dce565b60405180910390fd5b816065908051906020019061264b9291906128fd565b5080606690805190602001906126629291906128fd565b505050565b600060019054906101000a900460ff166126b6576040517f08c379a00000000000000000000000000000000000000000000000000000000081526004016126ad90613dce565b60405180910390fd5b6126c66126c16119ac565b611dea565b565b6126d28383612723565b6126df60008484846122fd565b61271e576040517f08c379a000000000000000000000000000000000000000000000000000000000815260040161271590613d3c565b60405180910390fd5b505050565b600073ffffffffffffffffffffffffffffffffffffffff168273ffffffffffffffffffffffffffffffffffffffff161415612793576040517f08c379a000000000000000000000000000000000000000000000000000000000815260040161278a90614029565b60405180910390fd5b61279c81612287565b156127dc576040517f08c379a00000000000000000000000000000000000000000000000000000000081526004016127d390614095565b60405180910390fd5b6127e8600083836122f3565b6001606860008473ffffffffffffffffffffffffffffffffffffffff1673ffffffffffffffffffffffffffffffffffffffff16815260200190815260200160002060008282546128389190613b9c565b92505081905550816067600083815260200190815260200160002060006101000a81548173ffffffffffffffffffffffffffffffffffffffff021916908373ffffffffffffffffffffffffffffffffffffffff160217905550808273ffffffffffffffffffffffffffffffffffffffff16600073ffffffffffffffffffffffffffffffffffffffff167fddf252ad1be2c89b69c2b068fc378daa952ba7f163c4a11628f55a4df523b3ef60405160405180910390a46128f9600083836122f8565b5050565b828054612909906131d8565b90600052602060002090601f01602090048101928261292b5760008555612972565b82601f1061294457805160ff1916838001178555612972565b82800160010185558215612972579182015b82811115612971578251825591602001919060010190612956565b5b50905061297f9190612983565b5090565b5b8082111561299c576000816000905550600101612984565b5090565b6000604051905090565b600080fd5b600080fd5b60007fffffffff0000000000000000000000000000000000000000000000000000000082169050919050565b6129e9816129b4565b81146129f457600080fd5b50565b600081359050612a06816129e0565b92915050565b600060208284031215612a2257612a216129aa565b5b6000612a30848285016129f7565b91505092915050565b60008115159050919050565b612a4e81612a39565b82525050565b6000602082019050612a696000830184612a45565b92915050565b600081519050919050565b600082825260208201905092915050565b60005b83811015612aa9578082015181840152602081019050612a8e565b83811115612ab8576000848401525b50505050565b6000601f19601f8301169050919050565b6000612ada82612a6f565b612ae48185612a7a565b9350612af4818560208601612a8b565b612afd81612abe565b840191505092915050565b60006020820190508181036000830152612b228184612acf565b905092915050565b6000819050919050565b612b3d81612b2a565b8114612b4857600080fd5b50565b600081359050612b5a81612b34565b92915050565b600060208284031215612b7657612b756129aa565b5b6000612b8484828501612b4b565b91505092915050565b600073ffffffffffffffffffffffffffffffffffffffff82169050919050565b6000612bb882612b8d565b9050919050565b612bc881612bad565b82525050565b6000602082019050612be36000830184612bbf565b92915050565b612bf281612bad565b8114612bfd57600080fd5b50565b600081359050612c0f81612be9565b92915050565b60008060408385031215612c2c57612c2b6129aa565b5b6000612c3a85828601612c00565b9250506020612c4b85828601612b4b565b9150509250929050565b612c5e81612b2a565b82525050565b6000602082019050612c796000830184612c55565b92915050565b600080600060608486031215612c9857612c976129aa565b5b6000612ca686828701612c00565b9350506020612cb786828701612c00565b9250506040612cc886828701612b4b565b9150509250925092565b600060208284031215612ce857612ce76129aa565b5b6000612cf684828501612c00565b91505092915050565b600081519050919050565b600082825260208201905092915050565b6000819050602082019050919050565b6000612d3682612b8d565b9050919050565b612d4681612d2b565b82525050565b6000612d588383612d3d565b60208301905092915050565b6000602082019050919050565b6000612d7c82612cff565b612d868185612d0a565b9350612d9183612d1b565b8060005b83811015612dc2578151612da98882612d4c565b9750612db483612d64565b925050600181019050612d95565b5085935050505092915050565b60006020820190508181036000830152612de98184612d71565b905092915050565b612dfa81612a39565b8114612e0557600080fd5b50565b600081359050612e1781612df1565b92915050565b60008060408385031215612e3457612e336129aa565b5b6000612e4285828601612c00565b9250506020612e5385828601612e08565b9150509250929050565b600080fd5b600080fd5b7f4e487b7100000000000000000000000000000000000000000000000000000000600052604160045260246000fd5b612e9f82612abe565b810181811067ffffffffffffffff82111715612ebe57612ebd612e67565b5b80604052505050565b6000612ed16129a0565b9050612edd8282612e96565b919050565b600067ffffffffffffffff821115612efd57612efc612e67565b5b612f0682612abe565b9050602081019050919050565b82818337600083830152505050565b6000612f35612f3084612ee2565b612ec7565b905082815260208101848484011115612f5157612f50612e62565b5b612f5c848285612f13565b509392505050565b600082601f830112612f7957612f78612e5d565b5b8135612f89848260208601612f22565b91505092915050565b60008060008060808587031215612fac57612fab6129aa565b5b6000612fba87828801612c00565b9450506020612fcb87828801612c00565b9350506040612fdc87828801612b4b565b925050606085013567ffffffffffffffff811115612ffd57612ffc6129af565b5b61300987828801612f64565b91505092959194509250565b6000806040838503121561302c5761302b6129aa565b5b600061303a85828601612b4b565b925050602061304b85828601612b4b565b9150509250929050565b6000806040838503121561306c5761306b6129aa565b5b600061307a85828601612c00565b925050602061308b85828601612c00565b9150509250929050565b61309e81612d2b565b82525050565b60006020820190506130b96000830184613095565b92915050565b600067ffffffffffffffff8211156130da576130d9612e67565b5b6130e382612abe565b9050602081019050919050565b60006131036130fe846130bf565b612ec7565b90508281526020810184848401111561311f5761311e612e62565b5b61312a848285612f13565b509392505050565b600082601f83011261314757613146612e5d565b5b81356131578482602086016130f0565b91505092915050565b600060208284031215613176576131756129aa565b5b600082013567ffffffffffffffff811115613194576131936129af565b5b6131a084828501613132565b91505092915050565b7f4e487b7100000000000000000000000000000000000000000000000000000000600052602260045260246000fd5b600060028204905060018216806131f057607f821691505b60208210811415613204576132036131a9565b5b50919050565b7f4552433732313a20617070726f76616c20746f2063757272656e74206f776e6560008201527f7200000000000000000000000000000000000000000000000000000000000000602082015250565b6000613266602183612a7a565b91506132718261320a565b604082019050919050565b6000602082019050818103600083015261329581613259565b9050919050565b7f4552433732313a20617070726f76652063616c6c6572206973206e6f7420746f60008201527f6b656e206f776e6572206e6f7220617070726f76656420666f7220616c6c0000602082015250565b60006132f8603e83612a7a565b91506133038261329c565b604082019050919050565b60006020820190508181036000830152613327816132eb565b9050919050565b7f4552433732313a2063616c6c6572206973206e6f7420746f6b656e206f776e6560008201527f72206e6f7220617070726f766564000000000000000000000000000000000000602082015250565b600061338a602e83612a7a565b91506133958261332e565b604082019050919050565b600060208201905081810360008301526133b98161337d565b9050919050565b7f4c6f7474657279206973207374696c6c206f70656e20666f72206e657720706c60008201527f6179657273210000000000000000000000000000000000000000000000000000602082015250565b600061341c602683612a7a565b9150613427826133c0565b604082019050919050565b6000602082019050818103600083015261344b8161340f565b9050919050565b7f4c6f747465727920656e64656421000000000000000000000000000000000000600082015250565b6000613488600e83612a7a565b915061349382613452565b602082019050919050565b600060208201905081810360008301526134b78161347b565b9050919050565b7f4e487b7100000000000000000000000000000000000000000000000000000000600052601260045260246000fd5b60006134f882612b2a565b915061350383612b2a565b925082613513576135126134be565b5b828206905092915050565b7f4e487b7100000000000000000000000000000000000000000000000000000000600052603260045260246000fd5b7f4552433732313a20696e76616c696420746f6b656e2049440000000000000000600082015250565b6000613583601883612a7a565b915061358e8261354d565b602082019050919050565b600060208201905081810360008301526135b281613576565b9050919050565b7f4552433732313a2061646472657373207a65726f206973206e6f74206120766160008201527f6c6964206f776e65720000000000000000000000000000000000000000000000602082015250565b6000613615602983612a7a565b9150613620826135b9565b604082019050919050565b6000602082019050818103600083015261364481613608565b9050919050565b600081905092915050565b600061366182612a6f565b61366b818561364b565b935061367b818560208601612a8b565b80840191505092915050565b60006136938285613656565b915061369f8284613656565b91508190509392505050565b60008160601b9050919050565b60006136c3826136ab565b9050919050565b60006136d5826136b8565b9050919050565b6136ed6136e882612bad565b6136ca565b82525050565b6000819050919050565b61370e61370982612b2a565b6136f3565b82525050565b600061372082856136dc565b60148201915061373082846136fd565b6020820191508190509392505050565b7f496e697469616c697a61626c653a20636f6e747261637420697320616c72656160008201527f647920696e697469616c697a6564000000000000000000000000000000000000602082015250565b600061379c602e83612a7a565b91506137a782613740565b604082019050919050565b600060208201905081810360008301526137cb8161378f565b9050919050565b6000819050919050565b600060ff82169050919050565b6000819050919050565b600061380e613809613804846137d2565b6137e9565b6137dc565b9050919050565b61381e816137f3565b82525050565b60006020820190506138396000830184613815565b92915050565b7f4f776e61626c653a206e6577206f776e657220697320746865207a65726f206160008201527f6464726573730000000000000000000000000000000000000000000000000000602082015250565b600061389b602683612a7a565b91506138a68261383f565b604082019050919050565b600060208201905081810360008301526138ca8161388e565b9050919050565b7f4c6f7474657279206973206e6f74207374617274656420796574210000000000600082015250565b6000613907601b83612a7a565b9150613912826138d1565b602082019050919050565b60006020820190508181036000830152613936816138fa565b9050919050565b7f4c6f747465727920697320636c6f73656420666f72206e657720626574732100600082015250565b6000613973601f83612a7a565b915061397e8261393d565b602082019050919050565b600060208201905081810360008301526139a281613966565b9050919050565b7f5265717569726564207469636b65742070726963652069732031204554482100600082015250565b60006139df601f83612a7a565b91506139ea826139a9565b602082019050919050565b60006020820190508181036000830152613a0e816139d2565b9050919050565b7f4552433732313a207472616e736665722066726f6d20696e636f72726563742060008201527f6f776e6572000000000000000000000000000000000000000000000000000000602082015250565b6000613a71602583612a7a565b9150613a7c82613a15565b604082019050919050565b60006020820190508181036000830152613aa081613a64565b9050919050565b7f4552433732313a207472616e7366657220746f20746865207a65726f2061646460008201527f7265737300000000000000000000000000000000000000000000000000000000602082015250565b6000613b03602483612a7a565b9150613b0e82613aa7565b604082019050919050565b60006020820190508181036000830152613b3281613af6565b9050919050565b7f4e487b7100000000000000000000000000000000000000000000000000000000600052601160045260246000fd5b6000613b7382612b2a565b9150613b7e83612b2a565b925082821015613b9157613b90613b39565b5b828203905092915050565b6000613ba782612b2a565b9150613bb283612b2a565b9250827fffffffffffffffffffffffffffffffffffffffffffffffffffffffffffffffff03821115613be757613be6613b39565b5b828201905092915050565b7f4f776e61626c653a2063616c6c6572206973206e6f7420746865206f776e6572600082015250565b6000613c28602083612a7a565b9150613c3382613bf2565b602082019050919050565b60006020820190508181036000830152613c5781613c1b565b9050919050565b7f4552433732313a20617070726f766520746f2063616c6c657200000000000000600082015250565b6000613c94601983612a7a565b9150613c9f82613c5e565b602082019050919050565b60006020820190508181036000830152613cc381613c87565b9050919050565b7f4552433732313a207472616e7366657220746f206e6f6e20455243373231526560008201527f63656976657220696d706c656d656e7465720000000000000000000000000000602082015250565b6000613d26603283612a7a565b9150613d3182613cca565b604082019050919050565b60006020820190508181036000830152613d5581613d19565b9050919050565b7f496e697469616c697a61626c653a20636f6e7472616374206973206e6f74206960008201527f6e697469616c697a696e67000000000000000000000000000000000000000000602082015250565b6000613db8602b83612a7a565b9150613dc382613d5c565b604082019050919050565b60006020820190508181036000830152613de781613dab565b9050919050565b7f45524337323155524953746f726167653a2055524920736574206f66206e6f6e60008201527f6578697374656e7420746f6b656e000000000000000000000000000000000000602082015250565b6000613e4a602e83612a7a565b9150613e5582613dee565b604082019050919050565b60006020820190508181036000830152613e7981613e3d565b9050919050565b600081519050919050565b600082825260208201905092915050565b6000613ea782613e80565b613eb18185613e8b565b9350613ec1818560208601612a8b565b613eca81612abe565b840191505092915050565b6000608082019050613eea6000830187612bbf565b613ef76020830186612bbf565b613f046040830185612c55565b8181036060830152613f168184613e9c565b905095945050505050565b600081519050613f30816129e0565b92915050565b600060208284031215613f4c57613f4b6129aa565b5b6000613f5a84828501613f21565b91505092915050565b6000613f6e82612b2a565b91507fffffffffffffffffffffffffffffffffffffffffffffffffffffffffffffffff821415613fa157613fa0613b39565b5b600182019050919050565b6000613fb782612b2a565b9150613fc283612b2a565b925082613fd257613fd16134be565b5b828204905092915050565b7f4552433732313a206d696e7420746f20746865207a65726f2061646472657373600082015250565b6000614013602083612a7a565b915061401e82613fdd565b602082019050919050565b6000602082019050818103600083015261404281614006565b9050919050565b7f4552433732313a20746f6b656e20616c7265616479206d696e74656400000000600082015250565b600061407f601c83612a7a565b915061408a82614049565b602082019050919050565b600060208201905081810360008301526140ae81614072565b905091905056fea2646970667358221220537caf0562b5beb43f2d3c15eec21480f222534aa2fe049a3be31072edd5a38664736f6c634300080b0033",
  "linkReferences": {},
  "deployedLinkReferences": {}
}