{
  "_format": "hh-sol-artifact-1",
  "contractName": "LotteryNftV2",
  "sourceName": "contracts/LotteryNftV2.sol",
  "abi": [
    {
      "anonymous": false,
      "inputs": [
        {
          "indexed": true,
          "internalType": "address",
          "name": "owner",
          "type": "address"
        },
        {
          "indexed": true,
          "internalType": "address",
          "name": "approved",
          "type": "address"
        },
        {
          "indexed": true,
          "internalType": "uint256",
          "name": "tokenId",
          "type": "uint256"
        }
      ],
      "name": "Approval",
      "type": "event"
    },
    {
      "anonymous": false,
      "inputs": [
        {
          "indexed": true,
          "internalType": "address",
          "name": "owner",
          "type": "address"
        },
        {
          "indexed": true,
          "internalType": "address",
          "name": "operator",
          "type": "address"
        },
        {
          "indexed": false,
          "internalType": "bool",
          "name": "approved",
          "type": "bool"
        }
      ],
      "name": "ApprovalForAll",
      "type": "event"
    },
    {
      "anonymous": false,
      "inputs": [
        {
          "indexed": false,
          "internalType": "uint8",
          "name": "version",
          "type": "uint8"
        }
      ],
      "name": "Initialized",
      "type": "event"
    },
    {
      "anonymous": false,
      "inputs": [
        {
          "indexed": true,
          "internalType": "address",
          "name": "previousOwner",
          "type": "address"
        },
        {
          "indexed": true,
          "internalType": "address",
          "name": "newOwner",
          "type": "address"
        }
      ],
      "name": "OwnershipTransferred",
      "type": "event"
    },
    {
      "anonymous": false,
      "inputs": [
        {
          "indexed": true,
          "internalType": "address",
          "name": "from",
          "type": "address"
        },
        {
          "indexed": true,
          "internalType": "address",
          "name": "to",
          "type": "address"
        },
        {
          "indexed": true,
          "internalType": "uint256",
          "name": "tokenId",
          "type": "uint256"
        }
      ],
      "name": "Transfer",
      "type": "event"
    },
    {
      "inputs": [
        {
          "internalType": "address",
          "name": "to",
          "type": "address"
        },
        {
          "internalType": "uint256",
          "name": "tokenId",
          "type": "uint256"
        }
      ],
      "name": "approve",
      "outputs": [],
      "stateMutability": "nonpayable",
      "type": "function"
    },
    {
      "inputs": [
        {
          "internalType": "address",
          "name": "owner",
          "type": "address"
        }
      ],
      "name": "balanceOf",
      "outputs": [
        {
          "internalType": "uint256",
          "name": "",
          "type": "uint256"
        }
      ],
      "stateMutability": "view",
      "type": "function"
    },
    {
      "inputs": [
        {
          "internalType": "string",
          "name": "tokenURI",
          "type": "string"
        }
      ],
      "name": "buyTicket",
      "outputs": [
        {
          "internalType": "uint256",
          "name": "",
          "type": "uint256"
        }
      ],
      "stateMutability": "payable",
      "type": "function"
    },
    {
      "inputs": [
        {
          "internalType": "uint256",
          "name": "tokenId",
          "type": "uint256"
        }
      ],
      "name": "getApproved",
      "outputs": [
        {
          "internalType": "address",
          "name": "",
          "type": "address"
        }
      ],
      "stateMutability": "view",
      "type": "function"
    },
    {
      "inputs": [],
      "name": "getBalance",
      "outputs": [
        {
          "internalType": "uint256",
          "name": "",
          "type": "uint256"
        }
      ],
      "stateMutability": "view",
      "type": "function"
    },
    {
      "inputs": [],
      "name": "getPlayers",
      "outputs": [
        {
          "internalType": "address payable[]",
          "name": "",
          "type": "address[]"
        }
      ],
      "stateMutability": "view",
      "type": "function"
    },
    {
      "inputs": [],
      "name": "getRandomNumber",
      "outputs": [
        {
          "internalType": "uint256",
          "name": "",
          "type": "uint256"
        }
      ],
      "stateMutability": "view",
      "type": "function"
    },
    {
      "inputs": [],
      "name": "getTokensCounter",
      "outputs": [
        {
          "internalType": "uint256",
          "name": "",
          "type": "uint256"
        }
      ],
      "stateMutability": "view",
      "type": "function"
    },
    {
      "inputs": [
        {
          "internalType": "uint256",
          "name": "startingBlock",
          "type": "uint256"
        },
        {
          "internalType": "uint256",
          "name": "endingBlock",
          "type": "uint256"
        }
      ],
      "name": "initialize",
      "outputs": [],
      "stateMutability": "nonpayable",
      "type": "function"
    },
    {
      "inputs": [
        {
          "internalType": "address",
          "name": "owner",
          "type": "address"
        },
        {
          "internalType": "address",
          "name": "operator",
          "type": "address"
        }
      ],
      "name": "isApprovedForAll",
      "outputs": [
        {
          "internalType": "bool",
          "name": "",
          "type": "bool"
        }
      ],
      "stateMutability": "view",
      "type": "function"
    },
    {
      "inputs": [],
      "name": "name",
      "outputs": [
        {
          "internalType": "string",
          "name": "",
          "type": "string"
        }
      ],
      "stateMutability": "view",
      "type": "function"
    },
    {
      "inputs": [],
      "name": "owner",
      "outputs": [
        {
          "internalType": "address",
          "name": "",
          "type": "address"
        }
      ],
      "stateMutability": "view",
      "type": "function"
    },
    {
      "inputs": [
        {
          "internalType": "uint256",
          "name": "tokenId",
          "type": "uint256"
        }
      ],
      "name": "ownerOf",
      "outputs": [
        {
          "internalType": "address",
          "name": "",
          "type": "address"
        }
      ],
      "stateMutability": "view",
      "type": "function"
    },
    {
      "inputs": [],
      "name": "pickSurpriseWinner",
      "outputs": [],
      "stateMutability": "nonpayable",
      "type": "function"
    },
    {
      "inputs": [],
      "name": "pickWinner",
      "outputs": [],
      "stateMutability": "nonpayable",
      "type": "function"
    },
    {
      "inputs": [
        {
          "internalType": "uint256",
          "name": "",
          "type": "uint256"
        }
      ],
      "name": "players",
      "outputs": [
        {
          "internalType": "address payable",
          "name": "",
          "type": "address"
        }
      ],
      "stateMutability": "view",
      "type": "function"
    },
    {
      "inputs": [],
      "name": "renounceOwnership",
      "outputs": [],
      "stateMutability": "nonpayable",
      "type": "function"
    },
    {
      "inputs": [
        {
          "internalType": "address",
          "name": "from",
          "type": "address"
        },
        {
          "internalType": "address",
          "name": "to",
          "type": "address"
        },
        {
          "internalType": "uint256",
          "name": "tokenId",
          "type": "uint256"
        }
      ],
      "name": "safeTransferFrom",
      "outputs": [],
      "stateMutability": "nonpayable",
      "type": "function"
    },
    {
      "inputs": [
        {
          "internalType": "address",
          "name": "from",
          "type": "address"
        },
        {
          "internalType": "address",
          "name": "to",
          "type": "address"
        },
        {
          "internalType": "uint256",
          "name": "tokenId",
          "type": "uint256"
        },
        {
          "internalType": "bytes",
          "name": "data",
          "type": "bytes"
        }
      ],
      "name": "safeTransferFrom",
      "outputs": [],
      "stateMutability": "nonpayable",
      "type": "function"
    },
    {
      "inputs": [
        {
          "internalType": "address",
          "name": "operator",
          "type": "address"
        },
        {
          "internalType": "bool",
          "name": "approved",
          "type": "bool"
        }
      ],
      "name": "setApprovalForAll",
      "outputs": [],
      "stateMutability": "nonpayable",
      "type": "function"
    },
    {
      "inputs": [
        {
          "internalType": "bytes4",
          "name": "interfaceId",
          "type": "bytes4"
        }
      ],
      "name": "supportsInterface",
      "outputs": [
        {
          "internalType": "bool",
          "name": "",
          "type": "bool"
        }
      ],
      "stateMutability": "view",
      "type": "function"
    },
    {
      "inputs": [],
      "name": "symbol",
      "outputs": [
        {
          "internalType": "string",
          "name": "",
          "type": "string"
        }
      ],
      "stateMutability": "view",
      "type": "function"
    },
    {
      "inputs": [
        {
          "internalType": "uint256",
          "name": "tokenId",
          "type": "uint256"
        }
      ],
      "name": "tokenURI",
      "outputs": [
        {
          "internalType": "string",
          "name": "",
          "type": "string"
        }
      ],
      "stateMutability": "view",
      "type": "function"
    },
    {
      "inputs": [
        {
          "internalType": "address",
          "name": "from",
          "type": "address"
        },
        {
          "internalType": "address",
          "name": "to",
          "type": "address"
        },
        {
          "internalType": "uint256",
          "name": "tokenId",
          "type": "uint256"
        }
      ],
      "name": "transferFrom",
      "outputs": [],
      "stateMutability": "nonpayable",
      "type": "function"
    },
    {
      "inputs": [
        {
          "internalType": "address",
          "name": "newOwner",
          "type": "address"
        }
      ],
      "name": "transferOwnership",
      "outputs": [],
      "stateMutability": "nonpayable",
      "type": "function"
    }
  ],
  "bytecode": "0x608060405234801561001057600080fd5b50614465806100206000396000f3fe6080604052600436106101665760003560e01c80638b5b9ccc116100d1578063c87b56dd1161008a578063e985e9c511610064578063e985e9c514610504578063f2fde38b14610541578063f71d96cb1461056a578063fa30b251146105a757610166565b8063c87b56dd14610473578063dbdff2c1146104b0578063e4a30116146104db57610166565b80638b5b9ccc146103755780638da5cb5b146103a0578063955eff3b146103cb57806395d89b41146103f6578063a22cb46514610421578063b88d4fde1461044a57610166565b806342842e0e1161012357806342842e0e1461028d5780635d495aea146102b65780636352211e146102cd57806370a082311461030a578063715018a61461034757806377bd375b1461035e57610166565b806301ffc9a71461016b57806306fdde03146101a8578063081812fc146101d3578063095ea7b31461021057806312065fe01461023957806323b872dd14610264575b600080fd5b34801561017757600080fd5b50610192600480360381019061018d9190612cf4565b6105d7565b60405161019f9190612d3c565b60405180910390f35b3480156101b457600080fd5b506101bd6106b9565b6040516101ca9190612df0565b60405180910390f35b3480156101df57600080fd5b506101fa60048036038101906101f59190612e48565b61074b565b6040516102079190612eb6565b60405180910390f35b34801561021c57600080fd5b5061023760048036038101906102329190612efd565b610791565b005b34801561024557600080fd5b5061024e6108a9565b60405161025b9190612f4c565b60405180910390f35b34801561027057600080fd5b5061028b60048036038101906102869190612f67565b6108ed565b005b34801561029957600080fd5b506102b460048036038101906102af9190612f67565b61094d565b005b3480156102c257600080fd5b506102cb61096d565b005b3480156102d957600080fd5b506102f460048036038101906102ef9190612e48565b610c08565b6040516103019190612eb6565b60405180910390f35b34801561031657600080fd5b50610331600480360381019061032c9190612fba565b610cba565b60405161033e9190612f4c565b60405180910390f35b34801561035357600080fd5b5061035c610d72565b005b34801561036a57600080fd5b50610373610d86565b005b34801561038157600080fd5b5061038a611039565b60405161039791906130b7565b60405180910390f35b3480156103ac57600080fd5b506103b5611103565b6040516103c29190612eb6565b60405180910390f35b3480156103d757600080fd5b506103e061112d565b6040516103ed9190612f4c565b60405180910390f35b34801561040257600080fd5b5061040b61117a565b6040516104189190612df0565b60405180910390f35b34801561042d57600080fd5b5061044860048036038101906104439190613105565b61120c565b005b34801561045657600080fd5b50610471600480360381019061046c919061327a565b611222565b005b34801561047f57600080fd5b5061049a60048036038101906104959190612e48565b611284565b6040516104a79190612df0565b60405180910390f35b3480156104bc57600080fd5b506104c5611397565b6040516104d29190612f4c565b60405180910390f35b3480156104e757600080fd5b5061050260048036038101906104fd91906132fd565b61140d565b005b34801561051057600080fd5b5061052b6004803603810190610526919061333d565b611683565b6040516105389190612d3c565b60405180910390f35b34801561054d57600080fd5b5061056860048036038101906105639190612fba565b611717565b005b34801561057657600080fd5b50610591600480360381019061058c9190612e48565b61179b565b60405161059e919061338c565b60405180910390f35b6105c160048036038101906105bc9190613448565b6117da565b6040516105ce9190612f4c565b60405180910390f35b60007f80ac58cd000000000000000000000000000000000000000000000000000000007bffffffffffffffffffffffffffffffffffffffffffffffffffffffff1916827bffffffffffffffffffffffffffffffffffffffffffffffffffffffff191614806106a257507f5b5e139f000000000000000000000000000000000000000000000000000000007bffffffffffffffffffffffffffffffffffffffffffffffffffffffff1916827bffffffffffffffffffffffffffffffffffffffffffffffffffffffff1916145b806106b257506106b182611bdc565b5b9050919050565b6060606580546106c8906134c0565b80601f01602080910402602001604051908101604052809291908181526020018280546106f4906134c0565b80156107415780601f1061071657610100808354040283529160200191610741565b820191906000526020600020905b81548152906001019060200180831161072457829003601f168201915b5050505050905090565b600061075682611c46565b6069600083815260200190815260200160002060009054906101000a900473ffffffffffffffffffffffffffffffffffffffff169050919050565b600061079c82610c08565b90508073ffffffffffffffffffffffffffffffffffffffff168373ffffffffffffffffffffffffffffffffffffffff16141561080d576040517f08c379a000000000000000000000000000000000000000000000000000000000815260040161080490613564565b60405180910390fd5b8073ffffffffffffffffffffffffffffffffffffffff1661082c611c91565b73ffffffffffffffffffffffffffffffffffffffff16148061085b575061085a81610855611c91565b611683565b5b61089a576040517f08c379a0000000000000000000000000000000000000000000000000000000008152600401610891906135f6565b60405180910390fd5b6108a48383611c99565b505050565b60006108bf67fb6df108f945b67f60c01b611d52565b6108d36769ecb7a60cebf51260c01b611d52565b6108e767f9f0122b15ec927160c01b611d52565b47905090565b6108fe6108f8611c91565b82611d55565b61093d576040517f08c379a000000000000000000000000000000000000000000000000000000000815260040161093490613688565b60405180910390fd5b610948838383611dea565b505050565b61096883838360405180602001604052806000815250611222565b505050565b6109816746e8777ccb4097af60c01b611d52565b610989612051565b61099d673d9b4c60ac064da260c01b611d52565b6109b167228c2886cdfc437960c01b611d52565b6109c5672e28ec2688e7752660c01b611d52565b6109d9675c602733c36ef4ae60c01b611d52565b6109ed67730ba9b4f65363b260c01b611d52565b4360fe5410610a31576040517f08c379a0000000000000000000000000000000000000000000000000000000008152600401610a289061371a565b60405180910390fd5b610a456727577d01e144836160c01b611d52565b610a5967ba5c0359e69276c160c01b611d52565b610a6d67cc7be1e5069b0cb960c01b611d52565b610a8167279476526d6bb64d60c01b611d52565b60ff60009054906101000a900460ff1615610ad1576040517f08c379a0000000000000000000000000000000000000000000000000000000008152600401610ac890613786565b60405180910390fd5b610ae56785a257f59769da5f60c01b611d52565b610af967c718354e21c483aa60c01b611d52565b610b0d67530b0b7824d61a2660c01b611d52565b600060fc80549050610b1d611397565b610b2791906137d5565b9050610b3d674ad8aeaca395c3e260c01b611d52565b610b5167d34bc02e30a433d260c01b611d52565b60fc8181548110610b6557610b64613806565b5b9060005260206000200160009054906101000a900473ffffffffffffffffffffffffffffffffffffffff1673ffffffffffffffffffffffffffffffffffffffff166108fc479081150290604051600060405180830381858888f19350505050158015610bd5573d6000803e3d6000fd5b50610bea67090400ce44b10b7660c01b611d52565b600160ff60006101000a81548160ff02191690831515021790555050565b6000806067600084815260200190815260200160002060009054906101000a900473ffffffffffffffffffffffffffffffffffffffff169050600073ffffffffffffffffffffffffffffffffffffffff168173ffffffffffffffffffffffffffffffffffffffff161415610cb1576040517f08c379a0000000000000000000000000000000000000000000000000000000008152600401610ca890613881565b60405180910390fd5b80915050919050565b60008073ffffffffffffffffffffffffffffffffffffffff168273ffffffffffffffffffffffffffffffffffffffff161415610d2b576040517f08c379a0000000000000000000000000000000000000000000000000000000008152600401610d2290613913565b60405180910390fd5b606860008373ffffffffffffffffffffffffffffffffffffffff1673ffffffffffffffffffffffffffffffffffffffff168152602001908152602001600020549050919050565b610d7a612051565b610d8460006120cf565b565b610d9a671c0a6f17c14e300460c01b612195565b610da2612051565b610db667ff027db488a3ec0060c01b612195565b610dca67661e63b63c14117660c01b612195565b610dde67571473550b5280cf60c01b612195565b610df26704244f74e93dddef60c01b612195565b610e0667100ac12e48008f2b60c01b612195565b60ff60019054906101000a900460ff1615610e56576040517f08c379a0000000000000000000000000000000000000000000000000000000008152600401610e4d906139a5565b60405180910390fd5b610e6a6797ca73e33f108a3360c01b612195565b610e7e67a06e108484c2881060c01b612195565b610e92676de3b7efab99f40160c01b612195565b610ea6675212aea14431966d60c01b612195565b60ff60009054906101000a900460ff1615610ef6576040517f08c379a0000000000000000000000000000000000000000000000000000000008152600401610eed90613786565b60405180910390fd5b610f0a6735676a0cd759e76d60c01b612195565b610f1e67ef041df74f41b93760c01b612195565b610f3267d7e004ee55d00fea60c01b612195565b600060fc80549050610f42611397565b610f4c91906137d5565b9050610f6267ea8eaff714e8d14660c01b612195565b610f7667ec3f265a3cfef5b360c01b612195565b60fc8181548110610f8a57610f89613806565b5b9060005260206000200160009054906101000a900473ffffffffffffffffffffffffffffffffffffffff1673ffffffffffffffffffffffffffffffffffffffff166108fc600247610fdb91906139f4565b9081150290604051600060405180830381858888f19350505050158015611006573d6000803e3d6000fd5b5061101b670648555910ddb9b960c01b612195565b600160ff60016101000a81548160ff02191690831515021790555050565b606061104f677eb182fb4e1d076860c01b611d52565b61106367f583d825e362393860c01b611d52565b61107767210f6a07d2132be860c01b611d52565b60fc8054806020026020016040519081016040528092919081815260200182805480156110f957602002820191906000526020600020905b8160009054906101000a900473ffffffffffffffffffffffffffffffffffffffff1673ffffffffffffffffffffffffffffffffffffffff16815260200190600101908083116110af575b5050505050905090565b600060c960009054906101000a900473ffffffffffffffffffffffffffffffffffffffff16905090565b600061114367227067bb313768eb60c01b611d52565b61115767f4a82282d21c9d3e60c01b611d52565b61116b67bdc78a572032f1e960c01b611d52565b61117560fb612198565b905090565b606060668054611189906134c0565b80601f01602080910402602001604051908101604052809291908181526020018280546111b5906134c0565b80156112025780601f106111d757610100808354040283529160200191611202565b820191906000526020600020905b8154815290600101906020018083116111e557829003601f168201915b5050505050905090565b61121e611217611c91565b83836121a6565b5050565b61123361122d611c91565b83611d55565b611272576040517f08c379a000000000000000000000000000000000000000000000000000000000815260040161126990613688565b60405180910390fd5b61127e84848484612313565b50505050565b606061128f82611c46565b60006097600084815260200190815260200160002080546112af906134c0565b80601f01602080910402602001604051908101604052809291908181526020018280546112db906134c0565b80156113285780601f106112fd57610100808354040283529160200191611328565b820191906000526020600020905b81548152906001019060200180831161130b57829003601f168201915b50505050509050600061133961236f565b905060008151141561134f578192505050611392565b60008251111561138457808260405160200161136c929190613a61565b60405160208183030381529060405292505050611392565b61138d84612386565b925050505b919050565b60006113ad67a21c689452f5171b60c01b611d52565b6113c16756779dcf0269321160c01b611d52565b6113d5672db658be0dcd0d3460c01b611d52565b6113dd611103565b426040516020016113ef929190613aee565b6040516020818303038152906040528051906020012060001c905090565b611421671e8a7e5c5159637160c01b611d52565b60008060019054906101000a900460ff161590508080156114525750600160008054906101000a900460ff1660ff16105b8061147f5750611461306123ee565b15801561147e5750600160008054906101000a900460ff1660ff16145b5b6114be576040517f08c379a00000000000000000000000000000000000000000000000000000000081526004016114b590613b8c565b60405180910390fd5b60016000806101000a81548160ff021916908360ff16021790555080156114fb576001600060016101000a81548160ff0219169083151502179055505b61150f67edd5c15cd19580d460c01b611d52565b61152367307f7cfff4e488ba60c01b611d52565b61153767a352ea559a06c1d460c01b611d52565b61154b6792e046444fbeadf560c01b611d52565b6115bf6040518060400160405280600781526020017f4c6f7474657279000000000000000000000000000000000000000000000000008152506040518060400160405280600781526020017f4c4f545445525900000000000000000000000000000000000000000000000000815250612411565b6115d3679c0b403345f7ba4460c01b611d52565b6115e767285548148e9f4f2560c01b611d52565b6115ef61246e565b6116036714f9309f1c523c7d60c01b611d52565b8260fd8190555061161e678f9c313ac6ab6b2a60c01b611d52565b8160fe81905550801561167e5760008060016101000a81548160ff0219169083151502179055507f7f26b83ff96e1f2b6a682f133852f6798a09c465da95921460cefb384740249860016040516116759190613bfe565b60405180910390a15b505050565b6000606a60008473ffffffffffffffffffffffffffffffffffffffff1673ffffffffffffffffffffffffffffffffffffffff16815260200190815260200160002060008373ffffffffffffffffffffffffffffffffffffffff1673ffffffffffffffffffffffffffffffffffffffff16815260200190815260200160002060009054906101000a900460ff16905092915050565b61171f612051565b600073ffffffffffffffffffffffffffffffffffffffff168173ffffffffffffffffffffffffffffffffffffffff16141561178f576040517f08c379a000000000000000000000000000000000000000000000000000000000815260040161178690613c8b565b60405180910390fd5b611798816120cf565b50565b60fc81815481106117ab57600080fd5b906000526020600020016000915054906101000a900473ffffffffffffffffffffffffffffffffffffffff1681565b60006117f067f843a65590c4fe1f60c01b611d52565b61180467c507375b8837e89a60c01b611d52565b6118186726da17cd9ef0809d60c01b611d52565b61182c67a1fc9af61a3c8a5360c01b611d52565b4360fd541115611871576040517f08c379a000000000000000000000000000000000000000000000000000000000815260040161186890613cf7565b60405180910390fd5b611885677931b1491cf44be460c01b611d52565b611899672bb857b989bae31760c01b611d52565b6118ad67247bff05a401af0960c01b611d52565b6118c167c6e0de816a29e08760c01b611d52565b60ff60009054906101000a900460ff1615611911576040517f08c379a000000000000000000000000000000000000000000000000000000000815260040161190890613786565b60405180910390fd5b611925671d2583a66f23f6c060c01b611d52565b61193967eba7db17fc499c4b60c01b611d52565b61194d674c160168fb98197e60c01b611d52565b61196167cb90907460deab8b60c01b611d52565b4360fe5410156119a6576040517f08c379a000000000000000000000000000000000000000000000000000000000815260040161199d90613d63565b60405180910390fd5b6119ba672d129924c0abafe860c01b611d52565b6119ce672a54c11231290b7260c01b611d52565b6119e2679a67e6d93addead960c01b611d52565b6119f6672edd09a35e410a5860c01b611d52565b670de0b6b3a76400003414611a40576040517f08c379a0000000000000000000000000000000000000000000000000000000008152600401611a3790613dcf565b60405180910390fd5b611a5467c9c04d913e45558960c01b611d52565b611a6867de08bebaecc8073560c01b611d52565b611a7c67fb3bee3f719874d360c01b611d52565b60fc339080600181540180825580915050600190039060005260206000200160009091909190916101000a81548173ffffffffffffffffffffffffffffffffffffffff021916908373ffffffffffffffffffffffffffffffffffffffff160217905550611af36760bc9fbd4caafdc260c01b611d52565b611b0767604a30e835c8c64660c01b611d52565b611b1160fb6124c7565b611b256786f0d498daae1e5d60c01b611d52565b611b3967ccc14c2b1e59386760c01b611d52565b6000611b4560fb612198565b9050611b5b67d088b1fcbc56218760c01b611d52565b611b6f6774fe18baafced4c160c01b611d52565b611b7933826124dd565b611b8d6772dc8070f33fa38a60c01b611d52565b611ba167901d29da1b44a39160c01b611d52565b611bab81846124fb565b611bbf67bc78062004cff41760c01b611d52565b611bd3677d966cc0b90cae4760c01b611d52565b80915050919050565b60007f01ffc9a7000000000000000000000000000000000000000000000000000000007bffffffffffffffffffffffffffffffffffffffffffffffffffffffff1916827bffffffffffffffffffffffffffffffffffffffffffffffffffffffff1916149050919050565b611c4f8161256f565b611c8e576040517f08c379a0000000000000000000000000000000000000000000000000000000008152600401611c8590613881565b60405180910390fd5b50565b600033905090565b816069600083815260200190815260200160002060006101000a81548173ffffffffffffffffffffffffffffffffffffffff021916908373ffffffffffffffffffffffffffffffffffffffff160217905550808273ffffffffffffffffffffffffffffffffffffffff16611d0c83610c08565b73ffffffffffffffffffffffffffffffffffffffff167f8c5be1e5ebec7d5bd14f71427d1e84f3dd0314c0f7b2291e5b200ac8c7c3b92560405160405180910390a45050565b50565b600080611d6183610c08565b90508073ffffffffffffffffffffffffffffffffffffffff168473ffffffffffffffffffffffffffffffffffffffff161480611da35750611da28185611683565b5b80611de157508373ffffffffffffffffffffffffffffffffffffffff16611dc98461074b565b73ffffffffffffffffffffffffffffffffffffffff16145b91505092915050565b8273ffffffffffffffffffffffffffffffffffffffff16611e0a82610c08565b73ffffffffffffffffffffffffffffffffffffffff1614611e60576040517f08c379a0000000000000000000000000000000000000000000000000000000008152600401611e5790613e61565b60405180910390fd5b600073ffffffffffffffffffffffffffffffffffffffff168273ffffffffffffffffffffffffffffffffffffffff161415611ed0576040517f08c379a0000000000000000000000000000000000000000000000000000000008152600401611ec790613ef3565b60405180910390fd5b611edb8383836125db565b611ee6600082611c99565b6001606860008573ffffffffffffffffffffffffffffffffffffffff1673ffffffffffffffffffffffffffffffffffffffff1681526020019081526020016000206000828254611f369190613f13565b925050819055506001606860008473ffffffffffffffffffffffffffffffffffffffff1673ffffffffffffffffffffffffffffffffffffffff1681526020019081526020016000206000828254611f8d9190613f47565b92505081905550816067600083815260200190815260200160002060006101000a81548173ffffffffffffffffffffffffffffffffffffffff021916908373ffffffffffffffffffffffffffffffffffffffff160217905550808273ffffffffffffffffffffffffffffffffffffffff168473ffffffffffffffffffffffffffffffffffffffff167fddf252ad1be2c89b69c2b068fc378daa952ba7f163c4a11628f55a4df523b3ef60405160405180910390a461204c8383836125e0565b505050565b612059611c91565b73ffffffffffffffffffffffffffffffffffffffff16612077611103565b73ffffffffffffffffffffffffffffffffffffffff16146120cd576040517f08c379a00000000000000000000000000000000000000000000000000000000081526004016120c490613fe9565b60405180910390fd5b565b600060c960009054906101000a900473ffffffffffffffffffffffffffffffffffffffff1690508160c960006101000a81548173ffffffffffffffffffffffffffffffffffffffff021916908373ffffffffffffffffffffffffffffffffffffffff1602179055508173ffffffffffffffffffffffffffffffffffffffff168173ffffffffffffffffffffffffffffffffffffffff167f8be0079c531659141344cd1fd0a4f28419497f9722a3daafe3b4186f6b6457e060405160405180910390a35050565b50565b600081600001549050919050565b8173ffffffffffffffffffffffffffffffffffffffff168373ffffffffffffffffffffffffffffffffffffffff161415612215576040517f08c379a000000000000000000000000000000000000000000000000000000000815260040161220c90614055565b60405180910390fd5b80606a60008573ffffffffffffffffffffffffffffffffffffffff1673ffffffffffffffffffffffffffffffffffffffff16815260200190815260200160002060008473ffffffffffffffffffffffffffffffffffffffff1673ffffffffffffffffffffffffffffffffffffffff16815260200190815260200160002060006101000a81548160ff0219169083151502179055508173ffffffffffffffffffffffffffffffffffffffff168373ffffffffffffffffffffffffffffffffffffffff167f17307eab39ab6107e8899845ad3d59bd9653f200f220920489ca2b5937696c31836040516123069190612d3c565b60405180910390a3505050565b61231e848484611dea565b61232a848484846125e5565b612369576040517f08c379a0000000000000000000000000000000000000000000000000000000008152600401612360906140e7565b60405180910390fd5b50505050565b606060405180602001604052806000815250905090565b606061239182611c46565b600061239b61236f565b905060008151116123bb57604051806020016040528060008152506123e6565b806123c58461276d565b6040516020016123d6929190613a61565b6040516020818303038152906040525b915050919050565b6000808273ffffffffffffffffffffffffffffffffffffffff163b119050919050565b600060019054906101000a900460ff16612460576040517f08c379a000000000000000000000000000000000000000000000000000000000815260040161245790614179565b60405180910390fd5b61246a82826128ce565b5050565b600060019054906101000a900460ff166124bd576040517f08c379a00000000000000000000000000000000000000000000000000000000081526004016124b490614179565b60405180910390fd5b6124c561294f565b565b6001816000016000828254019250508190555050565b6124f78282604051806020016040528060008152506129b0565b5050565b6125048261256f565b612543576040517f08c379a000000000000000000000000000000000000000000000000000000000815260040161253a9061420b565b60405180910390fd5b8060976000848152602001908152602001600020908051906020019061256a929190612be5565b505050565b60008073ffffffffffffffffffffffffffffffffffffffff166067600084815260200190815260200160002060009054906101000a900473ffffffffffffffffffffffffffffffffffffffff1673ffffffffffffffffffffffffffffffffffffffff1614159050919050565b505050565b505050565b60006126068473ffffffffffffffffffffffffffffffffffffffff166123ee565b15612760578373ffffffffffffffffffffffffffffffffffffffff1663150b7a0261262f611c91565b8786866040518563ffffffff1660e01b81526004016126519493929190614280565b6020604051808303816000875af192505050801561268d57506040513d601f19601f8201168201806040525081019061268a91906142e1565b60015b612710573d80600081146126bd576040519150601f19603f3d011682016040523d82523d6000602084013e6126c2565b606091505b50600081511415612708576040517f08c379a00000000000000000000000000000000000000000000000000000000081526004016126ff906140e7565b60405180910390fd5b805181602001fd5b63150b7a0260e01b7bffffffffffffffffffffffffffffffffffffffffffffffffffffffff1916817bffffffffffffffffffffffffffffffffffffffffffffffffffffffff191614915050612765565b600190505b949350505050565b606060008214156127b5576040518060400160405280600181526020017f300000000000000000000000000000000000000000000000000000000000000081525090506128c9565b600082905060005b600082146127e75780806127d09061430e565b915050600a826127e091906139f4565b91506127bd565b60008167ffffffffffffffff8111156128035761280261314f565b5b6040519080825280601f01601f1916602001820160405280156128355781602001600182028036833780820191505090505b5090505b600085146128c25760018261284e9190613f13565b9150600a8561285d91906137d5565b60306128699190613f47565b60f81b81838151811061287f5761287e613806565b5b60200101907effffffffffffffffffffffffffffffffffffffffffffffffffffffffffffff1916908160001a905350600a856128bb91906139f4565b9450612839565b8093505050505b919050565b600060019054906101000a900460ff1661291d576040517f08c379a000000000000000000000000000000000000000000000000000000000815260040161291490614179565b60405180910390fd5b8160659080519060200190612933929190612be5565b50806066908051906020019061294a929190612be5565b505050565b600060019054906101000a900460ff1661299e576040517f08c379a000000000000000000000000000000000000000000000000000000000815260040161299590614179565b60405180910390fd5b6129ae6129a9611c91565b6120cf565b565b6129ba8383612a0b565b6129c760008484846125e5565b612a06576040517f08c379a00000000000000000000000000000000000000000000000000000000081526004016129fd906140e7565b60405180910390fd5b505050565b600073ffffffffffffffffffffffffffffffffffffffff168273ffffffffffffffffffffffffffffffffffffffff161415612a7b576040517f08c379a0000000000000000000000000000000000000000000000000000000008152600401612a72906143a3565b60405180910390fd5b612a848161256f565b15612ac4576040517f08c379a0000000000000000000000000000000000000000000000000000000008152600401612abb9061440f565b60405180910390fd5b612ad0600083836125db565b6001606860008473ffffffffffffffffffffffffffffffffffffffff1673ffffffffffffffffffffffffffffffffffffffff1681526020019081526020016000206000828254612b209190613f47565b92505081905550816067600083815260200190815260200160002060006101000a81548173ffffffffffffffffffffffffffffffffffffffff021916908373ffffffffffffffffffffffffffffffffffffffff160217905550808273ffffffffffffffffffffffffffffffffffffffff16600073ffffffffffffffffffffffffffffffffffffffff167fddf252ad1be2c89b69c2b068fc378daa952ba7f163c4a11628f55a4df523b3ef60405160405180910390a4612be1600083836125e0565b5050565b828054612bf1906134c0565b90600052602060002090601f016020900481019282612c135760008555612c5a565b82601f10612c2c57805160ff1916838001178555612c5a565b82800160010185558215612c5a579182015b82811115612c59578251825591602001919060010190612c3e565b5b509050612c679190612c6b565b5090565b5b80821115612c84576000816000905550600101612c6c565b5090565b6000604051905090565b600080fd5b600080fd5b60007fffffffff0000000000000000000000000000000000000000000000000000000082169050919050565b612cd181612c9c565b8114612cdc57600080fd5b50565b600081359050612cee81612cc8565b92915050565b600060208284031215612d0a57612d09612c92565b5b6000612d1884828501612cdf565b91505092915050565b60008115159050919050565b612d3681612d21565b82525050565b6000602082019050612d516000830184612d2d565b92915050565b600081519050919050565b600082825260208201905092915050565b60005b83811015612d91578082015181840152602081019050612d76565b83811115612da0576000848401525b50505050565b6000601f19601f8301169050919050565b6000612dc282612d57565b612dcc8185612d62565b9350612ddc818560208601612d73565b612de581612da6565b840191505092915050565b60006020820190508181036000830152612e0a8184612db7565b905092915050565b6000819050919050565b612e2581612e12565b8114612e3057600080fd5b50565b600081359050612e4281612e1c565b92915050565b600060208284031215612e5e57612e5d612c92565b5b6000612e6c84828501612e33565b91505092915050565b600073ffffffffffffffffffffffffffffffffffffffff82169050919050565b6000612ea082612e75565b9050919050565b612eb081612e95565b82525050565b6000602082019050612ecb6000830184612ea7565b92915050565b612eda81612e95565b8114612ee557600080fd5b50565b600081359050612ef781612ed1565b92915050565b60008060408385031215612f1457612f13612c92565b5b6000612f2285828601612ee8565b9250506020612f3385828601612e33565b9150509250929050565b612f4681612e12565b82525050565b6000602082019050612f616000830184612f3d565b92915050565b600080600060608486031215612f8057612f7f612c92565b5b6000612f8e86828701612ee8565b9350506020612f9f86828701612ee8565b9250506040612fb086828701612e33565b9150509250925092565b600060208284031215612fd057612fcf612c92565b5b6000612fde84828501612ee8565b91505092915050565b600081519050919050565b600082825260208201905092915050565b6000819050602082019050919050565b600061301e82612e75565b9050919050565b61302e81613013565b82525050565b60006130408383613025565b60208301905092915050565b6000602082019050919050565b600061306482612fe7565b61306e8185612ff2565b935061307983613003565b8060005b838110156130aa5781516130918882613034565b975061309c8361304c565b92505060018101905061307d565b5085935050505092915050565b600060208201905081810360008301526130d18184613059565b905092915050565b6130e281612d21565b81146130ed57600080fd5b50565b6000813590506130ff816130d9565b92915050565b6000806040838503121561311c5761311b612c92565b5b600061312a85828601612ee8565b925050602061313b858286016130f0565b9150509250929050565b600080fd5b600080fd5b7f4e487b7100000000000000000000000000000000000000000000000000000000600052604160045260246000fd5b61318782612da6565b810181811067ffffffffffffffff821117156131a6576131a561314f565b5b80604052505050565b60006131b9612c88565b90506131c5828261317e565b919050565b600067ffffffffffffffff8211156131e5576131e461314f565b5b6131ee82612da6565b9050602081019050919050565b82818337600083830152505050565b600061321d613218846131ca565b6131af565b9050828152602081018484840111156132395761323861314a565b5b6132448482856131fb565b509392505050565b600082601f83011261326157613260613145565b5b813561327184826020860161320a565b91505092915050565b6000806000806080858703121561329457613293612c92565b5b60006132a287828801612ee8565b94505060206132b387828801612ee8565b93505060406132c487828801612e33565b925050606085013567ffffffffffffffff8111156132e5576132e4612c97565b5b6132f18782880161324c565b91505092959194509250565b6000806040838503121561331457613313612c92565b5b600061332285828601612e33565b925050602061333385828601612e33565b9150509250929050565b6000806040838503121561335457613353612c92565b5b600061336285828601612ee8565b925050602061337385828601612ee8565b9150509250929050565b61338681613013565b82525050565b60006020820190506133a1600083018461337d565b92915050565b600067ffffffffffffffff8211156133c2576133c161314f565b5b6133cb82612da6565b9050602081019050919050565b60006133eb6133e6846133a7565b6131af565b9050828152602081018484840111156134075761340661314a565b5b6134128482856131fb565b509392505050565b600082601f83011261342f5761342e613145565b5b813561343f8482602086016133d8565b91505092915050565b60006020828403121561345e5761345d612c92565b5b600082013567ffffffffffffffff81111561347c5761347b612c97565b5b6134888482850161341a565b91505092915050565b7f4e487b7100000000000000000000000000000000000000000000000000000000600052602260045260246000fd5b600060028204905060018216806134d857607f821691505b602082108114156134ec576134eb613491565b5b50919050565b7f4552433732313a20617070726f76616c20746f2063757272656e74206f776e6560008201527f7200000000000000000000000000000000000000000000000000000000000000602082015250565b600061354e602183612d62565b9150613559826134f2565b604082019050919050565b6000602082019050818103600083015261357d81613541565b9050919050565b7f4552433732313a20617070726f76652063616c6c6572206973206e6f7420746f60008201527f6b656e206f776e6572206e6f7220617070726f76656420666f7220616c6c0000602082015250565b60006135e0603e83612d62565b91506135eb82613584565b604082019050919050565b6000602082019050818103600083015261360f816135d3565b9050919050565b7f4552433732313a2063616c6c6572206973206e6f7420746f6b656e206f776e6560008201527f72206e6f7220617070726f766564000000000000000000000000000000000000602082015250565b6000613672602e83612d62565b915061367d82613616565b604082019050919050565b600060208201905081810360008301526136a181613665565b9050919050565b7f4c6f7474657279206973207374696c6c206f70656e20666f72206e657720706c60008201527f6179657273210000000000000000000000000000000000000000000000000000602082015250565b6000613704602683612d62565b915061370f826136a8565b604082019050919050565b60006020820190508181036000830152613733816136f7565b9050919050565b7f4c6f747465727920656e64656421000000000000000000000000000000000000600082015250565b6000613770600e83612d62565b915061377b8261373a565b602082019050919050565b6000602082019050818103600083015261379f81613763565b9050919050565b7f4e487b7100000000000000000000000000000000000000000000000000000000600052601260045260246000fd5b60006137e082612e12565b91506137eb83612e12565b9250826137fb576137fa6137a6565b5b828206905092915050565b7f4e487b7100000000000000000000000000000000000000000000000000000000600052603260045260246000fd5b7f4552433732313a20696e76616c696420746f6b656e2049440000000000000000600082015250565b600061386b601883612d62565b915061387682613835565b602082019050919050565b6000602082019050818103600083015261389a8161385e565b9050919050565b7f4552433732313a2061646472657373207a65726f206973206e6f74206120766160008201527f6c6964206f776e65720000000000000000000000000000000000000000000000602082015250565b60006138fd602983612d62565b9150613908826138a1565b604082019050919050565b6000602082019050818103600083015261392c816138f0565b9050919050565b7f53757270726973652077696e6e657220697320616c7265616479207069636b6560008201527f6421000000000000000000000000000000000000000000000000000000000000602082015250565b600061398f602283612d62565b915061399a82613933565b604082019050919050565b600060208201905081810360008301526139be81613982565b9050919050565b7f4e487b7100000000000000000000000000000000000000000000000000000000600052601160045260246000fd5b60006139ff82612e12565b9150613a0a83612e12565b925082613a1a57613a196137a6565b5b828204905092915050565b600081905092915050565b6000613a3b82612d57565b613a458185613a25565b9350613a55818560208601612d73565b80840191505092915050565b6000613a6d8285613a30565b9150613a798284613a30565b91508190509392505050565b60008160601b9050919050565b6000613a9d82613a85565b9050919050565b6000613aaf82613a92565b9050919050565b613ac7613ac282612e95565b613aa4565b82525050565b6000819050919050565b613ae8613ae382612e12565b613acd565b82525050565b6000613afa8285613ab6565b601482019150613b0a8284613ad7565b6020820191508190509392505050565b7f496e697469616c697a61626c653a20636f6e747261637420697320616c72656160008201527f647920696e697469616c697a6564000000000000000000000000000000000000602082015250565b6000613b76602e83612d62565b9150613b8182613b1a565b604082019050919050565b60006020820190508181036000830152613ba581613b69565b9050919050565b6000819050919050565b600060ff82169050919050565b6000819050919050565b6000613be8613be3613bde84613bac565b613bc3565b613bb6565b9050919050565b613bf881613bcd565b82525050565b6000602082019050613c136000830184613bef565b92915050565b7f4f776e61626c653a206e6577206f776e657220697320746865207a65726f206160008201527f6464726573730000000000000000000000000000000000000000000000000000602082015250565b6000613c75602683612d62565b9150613c8082613c19565b604082019050919050565b60006020820190508181036000830152613ca481613c68565b9050919050565b7f4c6f7474657279206973206e6f74207374617274656420796574210000000000600082015250565b6000613ce1601b83612d62565b9150613cec82613cab565b602082019050919050565b60006020820190508181036000830152613d1081613cd4565b9050919050565b7f4c6f747465727920697320636c6f73656420666f72206e657720626574732100600082015250565b6000613d4d601f83612d62565b9150613d5882613d17565b602082019050919050565b60006020820190508181036000830152613d7c81613d40565b9050919050565b7f5265717569726564207469636b65742070726963652069732031204554482100600082015250565b6000613db9601f83612d62565b9150613dc482613d83565b602082019050919050565b60006020820190508181036000830152613de881613dac565b9050919050565b7f4552433732313a207472616e736665722066726f6d20696e636f72726563742060008201527f6f776e6572000000000000000000000000000000000000000000000000000000602082015250565b6000613e4b602583612d62565b9150613e5682613def565b604082019050919050565b60006020820190508181036000830152613e7a81613e3e565b9050919050565b7f4552433732313a207472616e7366657220746f20746865207a65726f2061646460008201527f7265737300000000000000000000000000000000000000000000000000000000602082015250565b6000613edd602483612d62565b9150613ee882613e81565b604082019050919050565b60006020820190508181036000830152613f0c81613ed0565b9050919050565b6000613f1e82612e12565b9150613f2983612e12565b925082821015613f3c57613f3b6139c5565b5b828203905092915050565b6000613f5282612e12565b9150613f5d83612e12565b9250827fffffffffffffffffffffffffffffffffffffffffffffffffffffffffffffffff03821115613f9257613f916139c5565b5b828201905092915050565b7f4f776e61626c653a2063616c6c6572206973206e6f7420746865206f776e6572600082015250565b6000613fd3602083612d62565b9150613fde82613f9d565b602082019050919050565b6000602082019050818103600083015261400281613fc6565b9050919050565b7f4552433732313a20617070726f766520746f2063616c6c657200000000000000600082015250565b600061403f601983612d62565b915061404a82614009565b602082019050919050565b6000602082019050818103600083015261406e81614032565b9050919050565b7f4552433732313a207472616e7366657220746f206e6f6e20455243373231526560008201527f63656976657220696d706c656d656e7465720000000000000000000000000000602082015250565b60006140d1603283612d62565b91506140dc82614075565b604082019050919050565b60006020820190508181036000830152614100816140c4565b9050919050565b7f496e697469616c697a61626c653a20636f6e7472616374206973206e6f74206960008201527f6e697469616c697a696e67000000000000000000000000000000000000000000602082015250565b6000614163602b83612d62565b915061416e82614107565b604082019050919050565b6000602082019050818103600083015261419281614156565b9050919050565b7f45524337323155524953746f726167653a2055524920736574206f66206e6f6e60008201527f6578697374656e7420746f6b656e000000000000000000000000000000000000602082015250565b60006141f5602e83612d62565b915061420082614199565b604082019050919050565b60006020820190508181036000830152614224816141e8565b9050919050565b600081519050919050565b600082825260208201905092915050565b60006142528261422b565b61425c8185614236565b935061426c818560208601612d73565b61427581612da6565b840191505092915050565b60006080820190506142956000830187612ea7565b6142a26020830186612ea7565b6142af6040830185612f3d565b81810360608301526142c18184614247565b905095945050505050565b6000815190506142db81612cc8565b92915050565b6000602082840312156142f7576142f6612c92565b5b6000614305848285016142cc565b91505092915050565b600061431982612e12565b91507fffffffffffffffffffffffffffffffffffffffffffffffffffffffffffffffff82141561434c5761434b6139c5565b5b600182019050919050565b7f4552433732313a206d696e7420746f20746865207a65726f2061646472657373600082015250565b600061438d602083612d62565b915061439882614357565b602082019050919050565b600060208201905081810360008301526143bc81614380565b9050919050565b7f4552433732313a20746f6b656e20616c7265616479206d696e74656400000000600082015250565b60006143f9601c83612d62565b9150614404826143c3565b602082019050919050565b60006020820190508181036000830152614428816143ec565b905091905056fea26469706673582212208b14a8d2b25d8da18325cfb31f70eabe2815554c354412b0fa176f67526e446d64736f6c634300080b0033",
  "linkReferences": {},
  "deployedLinkReferences": {}
}